{
  "transactions": [
    {
      "hash": "0x64f595d1cc45ec9f869c4a7ad300f67fe197647a93c1e6abb1a9335cb7ed25e5",
      "transactionType": "CREATE",
      "contractName": "ERC20Mock",
      "contractAddress": "0xf1e80cece49ee7f11469da001c98502e8bc38397",
      "function": null,
      "arguments": [
        "Test USDC",
        "USDC",
        "6"
      ],
      "transaction": {
        "from": "0x39dc391f8ffe71156212c7c3196ef09b9c0bddf8",
        "gas": "0xad293",
        "value": "0x0",
        "input": "0x608060405234801561000f575f80fd5b50604051610a40380380610a4083398101604081905261002e91610106565b8282600361003c8382610207565b5060046100498282610207565b50506005805460ff191660ff9390931692909217909155506102c1915050565b634e487b7160e01b5f52604160045260245ffd5b5f82601f83011261008c575f80fd5b81516001600160401b038111156100a5576100a5610069565b604051601f8201601f19908116603f011681016001600160401b03811182821017156100d3576100d3610069565b6040528181528382016020018510156100ea575f80fd5b8160208501602083015e5f918101602001919091529392505050565b5f805f60608486031215610118575f80fd5b83516001600160401b0381111561012d575f80fd5b6101398682870161007d565b602086015190945090506001600160401b03811115610156575f80fd5b6101628682870161007d565b925050604084015160ff81168114610178575f80fd5b809150509250925092565b600181811c9082168061019757607f821691505b6020821081036101b557634e487b7160e01b5f52602260045260245ffd5b50919050565b601f82111561020257805f5260205f20601f840160051c810160208510156101e05750805b601f840160051c820191505b818110156101ff575f81556001016101ec565b50505b505050565b81516001600160401b0381111561022057610220610069565b6102348161022e8454610183565b846101bb565b6020601f821160018114610266575f831561024f5750848201515b5f19600385901b1c1916600184901b1784556101ff565b5f84815260208120601f198516915b828110156102955787850151825560209485019460019092019101610275565b50848210156102b257868401515f19600387901b60f8161c191681555b50505050600190811b01905550565b610772806102ce5f395ff3fe608060405234801561000f575f80fd5b50600436106100a6575f3560e01c806340c10f191161006e57806340c10f191461012557806370a082311461013a57806395d89b41146101625780639dc29fac1461016a578063a9059cbb1461017d578063dd62ed3e14610190575f80fd5b806306fdde03146100aa578063095ea7b3146100c857806318160ddd146100eb57806323b872dd146100fd578063313ce56714610110575b5f80fd5b6100b26101c8565b6040516100bf9190610618565b60405180910390f35b6100db6100d6366004610668565b610258565b60405190151581526020016100bf565b6002545b6040519081526020016100bf565b6100db61010b366004610690565b610271565b60055460405160ff90911681526020016100bf565b610138610133366004610668565b610294565b005b6100ef6101483660046106ca565b6001600160a01b03165f9081526020819052604090205490565b6100b26102a2565b610138610178366004610668565b6102b1565b6100db61018b366004610668565b6102bb565b6100ef61019e3660046106ea565b6001600160a01b039182165f90815260016020908152604080832093909416825291909152205490565b6060600380546101d79061071b565b80601f01602080910402602001604051908101604052809291908181526020018280546102039061071b565b801561024e5780601f106102255761010080835404028352916020019161024e565b820191905f5260205f20905b81548152906001019060200180831161023157829003601f168201915b5050505050905090565b5f336102658185856102c8565b60019150505b92915050565b5f3361027e8582856102da565b61028985858561035b565b506001949350505050565b61029e82826103b8565b5050565b6060600480546101d79061071b565b61029e82826103ec565b5f3361026581858561035b565b6102d58383836001610420565b505050565b6001600160a01b038381165f908152600160209081526040808320938616835292905220545f19811015610355578181101561034757604051637dc7a0d960e11b81526001600160a01b038416600482015260248101829052604481018390526064015b60405180910390fd5b61035584848484035f610420565b50505050565b6001600160a01b03831661038457604051634b637e8f60e11b81525f600482015260240161033e565b6001600160a01b0382166103ad5760405163ec442f0560e01b81525f600482015260240161033e565b6102d58383836104f2565b6001600160a01b0382166103e15760405163ec442f0560e01b81525f600482015260240161033e565b61029e5f83836104f2565b6001600160a01b03821661041557604051634b637e8f60e11b81525f600482015260240161033e565b61029e825f836104f2565b6001600160a01b0384166104495760405163e602df0560e01b81525f600482015260240161033e565b6001600160a01b03831661047257604051634a1406b160e11b81525f600482015260240161033e565b6001600160a01b038085165f908152600160209081526040808320938716835292905220829055801561035557826001600160a01b0316846001600160a01b03167f8c5be1e5ebec7d5bd14f71427d1e84f3dd0314c0f7b2291e5b200ac8c7c3b925846040516104e491815260200190565b60405180910390a350505050565b6001600160a01b03831661051c578060025f8282546105119190610753565b9091555061058c9050565b6001600160a01b0383165f908152602081905260409020548181101561056e5760405163391434e360e21b81526001600160a01b0385166004820152602481018290526044810183905260640161033e565b6001600160a01b0384165f9081526020819052604090209082900390555b6001600160a01b0382166105a8576002805482900390556105c6565b6001600160a01b0382165f9081526020819052604090208054820190555b816001600160a01b0316836001600160a01b03167fddf252ad1be2c89b69c2b068fc378daa952ba7f163c4a11628f55a4df523b3ef8360405161060b91815260200190565b60405180910390a3505050565b602081525f82518060208401528060208501604085015e5f604082850101526040601f19601f83011684010191505092915050565b80356001600160a01b0381168114610663575f80fd5b919050565b5f8060408385031215610679575f80fd5b6106828361064d565b946020939093013593505050565b5f805f606084860312156106a2575f80fd5b6106ab8461064d565b92506106b96020850161064d565b929592945050506040919091013590565b5f602082840312156106da575f80fd5b6106e38261064d565b9392505050565b5f80604083850312156106fb575f80fd5b6107048361064d565b91506107126020840161064d565b90509250929050565b600181811c9082168061072f57607f821691505b60208210810361074d57634e487b7160e01b5f52602260045260245ffd5b50919050565b8082018082111561026b57634e487b7160e01b5f52601160045260245ffd000000000000000000000000000000000000000000000000000000000000006000000000000000000000000000000000000000000000000000000000000000a000000000000000000000000000000000000000000000000000000000000000060000000000000000000000000000000000000000000000000000000000000009546573742055534443000000000000000000000000000000000000000000000000000000000000000000000000000000000000000000000000000000000000045553444300000000000000000000000000000000000000000000000000000000",
        "nonce": "0xfc",
        "chainId": "0x515"
      },
      "additionalContracts": [],
      "isFixedGasLimit": false
    },
    {
      "hash": "0x764428b725c33795b247745fd208a40ee160b13743a079d353afb7d6472560ff",
      "transactionType": "CALL",
      "contractName": "ERC20Mock",
      "contractAddress": "0xf1e80cece49ee7f11469da001c98502e8bc38397",
      "function": "mint(address,uint256)",
      "arguments": [
        "0x39dc391f8FFE71156212C7c3196Ef09B9C0bdDf8",
        "1000000000000"
      ],
      "transaction": {
        "from": "0x39dc391f8ffe71156212c7c3196ef09b9c0bddf8",
        "to": "0xf1e80cece49ee7f11469da001c98502e8bc38397",
        "gas": "0x17101",
        "value": "0x0",
        "input": "0x40c10f1900000000000000000000000039dc391f8ffe71156212c7c3196ef09b9c0bddf8000000000000000000000000000000000000000000000000000000e8d4a51000",
        "nonce": "0xfd",
        "chainId": "0x515"
      },
      "additionalContracts": [],
      "isFixedGasLimit": false
    },
    {
      "hash": "0x3799e832045b4da5631df74f2789683cc3d0e8808527fa384196fddc05d0eac1",
      "transactionType": "CALL",
      "contractName": "ERC20Mock",
      "contractAddress": "0xf1e80cece49ee7f11469da001c98502e8bc38397",
      "function": "approve(address,uint256)",
      "arguments": [
        "0x77F3F0F59342E6D2E7510cf853EeA7Ee6143Ca80",
        "115792089237316195423570985008687907853269984665640564039457584007913129639935"
      ],
      "transaction": {
        "from": "0x39dc391f8ffe71156212c7c3196ef09b9c0bddf8",
        "to": "0xf1e80cece49ee7f11469da001c98502e8bc38397",
        "gas": "0xfbda",
        "value": "0x0",
        "input": "0x095ea7b300000000000000000000000077f3f0f59342e6d2e7510cf853eea7ee6143ca80ffffffffffffffffffffffffffffffffffffffffffffffffffffffffffffffff",
        "nonce": "0xfe",
        "chainId": "0x515"
      },
      "additionalContracts": [],
      "isFixedGasLimit": false
    },
    {
      "hash": "0x572c2d7794ab13eb26a053aa7f067aefc82779b44cd15e9bc8d968bba503e13c",
      "transactionType": "CALL",
      "contractName": null,
      "contractAddress": "0x77f3f0f59342e6d2e7510cf853eea7ee6143ca80",
      "function": "createMarketAndDepositCollateral((address,address,address,uint256,string,string,uint256,uint256))",
      "arguments": [
        "(0x39dc391f8FFE71156212C7c3196Ef09B9C0bdDf8, 0x39dc391f8FFE71156212C7c3196Ef09B9C0bdDf8, 0xF1e80ceCE49EE7f11469DA001c98502E8Bc38397, 100000000, Test market 1, Market resolves to YES if ETH is above 1000, 2592000, 0)"
      ],
      "transaction": {
        "from": "0x39dc391f8ffe71156212c7c3196ef09b9c0bddf8",
        "to": "0x77f3f0f59342e6d2e7510cf853eea7ee6143ca80",
        "gas": "0x27573b",
        "value": "0x0",
        "input": "0xcb916b33000000000000000000000000000000000000000000000000000000000000002000000000000000000000000039dc391f8ffe71156212c7c3196ef09b9c0bddf800000000000000000000000039dc391f8ffe71156212c7c3196ef09b9c0bddf8000000000000000000000000f1e80cece49ee7f11469da001c98502e8bc383970000000000000000000000000000000000000000000000000000000005f5e100000000000000000000000000000000000000000000000000000000000000010000000000000000000000000000000000000000000000000000000000000001400000000000000000000000000000000000000000000000000000000000278d000000000000000000000000000000000000000000000000000000000000000000000000000000000000000000000000000000000000000000000000000000000d54657374206d61726b6574203100000000000000000000000000000000000000000000000000000000000000000000000000000000000000000000000000002b4d61726b6574207265736f6c76657320746f20594553206966204554482069732061626f76652031303030000000000000000000000000000000000000000000",
        "nonce": "0xff",
        "chainId": "0x515"
      },
      "additionalContracts": [
        {
          "transactionType": "CREATE",
          "address": "0xc09d1f88f792719e9c0cf97a89874acd9970ba8c",
          "initCode": "0x608060405234801561000f575f80fd5b50604051610c65380380610c6583398101604081905261002e91610179565b338282600361003d8382610262565b50600461004a8282610262565b5050506001600160a01b03811661007a57604051631e4fbdf760e01b81525f600482015260240160405180910390fd5b6100838161008b565b50505061031c565b600580546001600160a01b038381166001600160a01b0319831681179093556040519116919082907f8be0079c531659141344cd1fd0a4f28419497f9722a3daafe3b4186f6b6457e0905f90a35050565b634e487b7160e01b5f52604160045260245ffd5b5f82601f8301126100ff575f80fd5b81516001600160401b03811115610118576101186100dc565b604051601f8201601f19908116603f011681016001600160401b0381118282101715610146576101466100dc565b60405281815283820160200185101561015d575f80fd5b8160208501602083015e5f918101602001919091529392505050565b5f806040838503121561018a575f80fd5b82516001600160401b0381111561019f575f80fd5b6101ab858286016100f0565b602085015190935090506001600160401b038111156101c8575f80fd5b6101d4858286016100f0565b9150509250929050565b600181811c908216806101f257607f821691505b60208210810361021057634e487b7160e01b5f52602260045260245ffd5b50919050565b601f82111561025d57805f5260205f20601f840160051c8101602085101561023b5750805b601f840160051c820191505b8181101561025a575f8155600101610247565b50505b505050565b81516001600160401b0381111561027b5761027b6100dc565b61028f8161028984546101de565b84610216565b6020601f8211600181146102c1575f83156102aa5750848201515b5f19600385901b1c1916600184901b17845561025a565b5f84815260208120601f198516915b828110156102f057878501518255602094850194600190920191016102d0565b508482101561030d57868401515f19600387901b60f8161c191681555b50505050600190811b01905550565b61093c806103295f395ff3fe608060405234801561000f575f80fd5b50600436106100e5575f3560e01c8063715018a61161008857806395d89b411161006357806395d89b41146101d1578063a9059cbb146101d9578063dd62ed3e146101ec578063f2fde38b146101ff575f80fd5b8063715018a61461019b57806379cc6790146101a35780638da5cb5b146101b6575f80fd5b806323b872dd116100c357806323b872dd1461013c578063313ce5671461014f57806340c10f191461015e57806370a0823114610173575f80fd5b806306fdde03146100e9578063095ea7b31461010757806318160ddd1461012a575b5f80fd5b6100f1610212565b6040516100fe91906107c7565b60405180910390f35b61011a610115366004610817565b6102a2565b60405190151581526020016100fe565b6002545b6040519081526020016100fe565b61011a61014a36600461083f565b6102bb565b604051601281526020016100fe565b61017161016c366004610817565b6102de565b005b61012e610181366004610879565b6001600160a01b03165f9081526020819052604090205490565b6101716102f4565b6101716101b1366004610817565b610307565b6005546040516001600160a01b0390911681526020016100fe565b6100f1610398565b61011a6101e7366004610817565b6103a7565b61012e6101fa366004610899565b6103b4565b61017161020d366004610879565b6103de565b606060038054610221906108ca565b80601f016020809104026020016040519081016040528092919081815260200182805461024d906108ca565b80156102985780601f1061026f57610100808354040283529160200191610298565b820191905f5260205f20905b81548152906001019060200180831161027b57829003601f168201915b5050505050905090565b5f336102af81858561041b565b60019150505b92915050565b5f336102c8858285610428565b6102d385858561048c565b506001949350505050565b6102e66104e9565b6102f08282610516565b5050565b6102fc6104e9565b6103055f61054a565b565b5f61031283336103b4565b9050818110156103755760405162461bcd60e51b8152602060048201526024808201527f45524332303a206275726e20616d6f756e74206578636565647320616c6c6f77604482015263616e636560e01b60648201526084015b60405180910390fd5b61038983336103848585610916565b61041b565b610393838361059b565b505050565b606060048054610221906108ca565b5f336102af81858561048c565b6001600160a01b039182165f90815260016020908152604080832093909416825291909152205490565b6103e66104e9565b6001600160a01b03811661040f57604051631e4fbdf760e01b81525f600482015260240161036c565b6104188161054a565b50565b61039383838360016105cf565b5f61043384846103b4565b90505f19811015610486578181101561047857604051637dc7a0d960e11b81526001600160a01b0384166004820152602481018290526044810183905260640161036c565b61048684848484035f6105cf565b50505050565b6001600160a01b0383166104b557604051634b637e8f60e11b81525f600482015260240161036c565b6001600160a01b0382166104de5760405163ec442f0560e01b81525f600482015260240161036c565b6103938383836106a1565b6005546001600160a01b031633146103055760405163118cdaa760e01b815233600482015260240161036c565b6001600160a01b03821661053f5760405163ec442f0560e01b81525f600482015260240161036c565b6102f05f83836106a1565b600580546001600160a01b038381166001600160a01b0319831681179093556040519116919082907f8be0079c531659141344cd1fd0a4f28419497f9722a3daafe3b4186f6b6457e0905f90a35050565b6001600160a01b0382166105c457604051634b637e8f60e11b81525f600482015260240161036c565b6102f0825f836106a1565b6001600160a01b0384166105f85760405163e602df0560e01b81525f600482015260240161036c565b6001600160a01b03831661062157604051634a1406b160e11b81525f600482015260240161036c565b6001600160a01b038085165f908152600160209081526040808320938716835292905220829055801561048657826001600160a01b0316846001600160a01b03167f8c5be1e5ebec7d5bd14f71427d1e84f3dd0314c0f7b2291e5b200ac8c7c3b9258460405161069391815260200190565b60405180910390a350505050565b6001600160a01b0383166106cb578060025f8282546106c09190610929565b9091555061073b9050565b6001600160a01b0383165f908152602081905260409020548181101561071d5760405163391434e360e21b81526001600160a01b0385166004820152602481018290526044810183905260640161036c565b6001600160a01b0384165f9081526020819052604090209082900390555b6001600160a01b03821661075757600280548290039055610775565b6001600160a01b0382165f9081526020819052604090208054820190555b816001600160a01b0316836001600160a01b03167fddf252ad1be2c89b69c2b068fc378daa952ba7f163c4a11628f55a4df523b3ef836040516107ba91815260200190565b60405180910390a3505050565b602081525f82518060208401528060208501604085015e5f604082850101526040601f19601f83011684010191505092915050565b80356001600160a01b0381168114610812575f80fd5b919050565b5f8060408385031215610828575f80fd5b610831836107fc565b946020939093013593505050565b5f805f60608486031215610851575f80fd5b61085a846107fc565b9250610868602085016107fc565b929592945050506040919091013590565b5f60208284031215610889575f80fd5b610892826107fc565b9392505050565b5f80604083850312156108aa575f80fd5b6108b3836107fc565b91506108c1602084016107fc565b90509250929050565b600181811c908216806108de57607f821691505b6020821081036108fc57634e487b7160e01b5f52602260045260245ffd5b50919050565b634e487b7160e01b5f52601160045260245ffd5b818103818111156102b5576102b5610902565b808201808211156102b5576102b56109025600000000000000000000000000000000000000000000000000000000000000400000000000000000000000000000000000000000000000000000000000000080000000000000000000000000000000000000000000000000000000000000000a4d61726b6574205945530000000000000000000000000000000000000000000000000000000000000000000000000000000000000000000000000000000000035945530000000000000000000000000000000000000000000000000000000000"
        },
        {
          "transactionType": "CREATE",
          "address": "0x08e71b7d99762451082d008641ae28bcf4470f9f",
          "initCode": "0x608060405234801561000f575f80fd5b50604051610c65380380610c6583398101604081905261002e91610179565b338282600361003d8382610262565b50600461004a8282610262565b5050506001600160a01b03811661007a57604051631e4fbdf760e01b81525f600482015260240160405180910390fd5b6100838161008b565b50505061031c565b600580546001600160a01b038381166001600160a01b0319831681179093556040519116919082907f8be0079c531659141344cd1fd0a4f28419497f9722a3daafe3b4186f6b6457e0905f90a35050565b634e487b7160e01b5f52604160045260245ffd5b5f82601f8301126100ff575f80fd5b81516001600160401b03811115610118576101186100dc565b604051601f8201601f19908116603f011681016001600160401b0381118282101715610146576101466100dc565b60405281815283820160200185101561015d575f80fd5b8160208501602083015e5f918101602001919091529392505050565b5f806040838503121561018a575f80fd5b82516001600160401b0381111561019f575f80fd5b6101ab858286016100f0565b602085015190935090506001600160401b038111156101c8575f80fd5b6101d4858286016100f0565b9150509250929050565b600181811c908216806101f257607f821691505b60208210810361021057634e487b7160e01b5f52602260045260245ffd5b50919050565b601f82111561025d57805f5260205f20601f840160051c8101602085101561023b5750805b601f840160051c820191505b8181101561025a575f8155600101610247565b50505b505050565b81516001600160401b0381111561027b5761027b6100dc565b61028f8161028984546101de565b84610216565b6020601f8211600181146102c1575f83156102aa5750848201515b5f19600385901b1c1916600184901b17845561025a565b5f84815260208120601f198516915b828110156102f057878501518255602094850194600190920191016102d0565b508482101561030d57868401515f19600387901b60f8161c191681555b50505050600190811b01905550565b61093c806103295f395ff3fe608060405234801561000f575f80fd5b50600436106100e5575f3560e01c8063715018a61161008857806395d89b411161006357806395d89b41146101d1578063a9059cbb146101d9578063dd62ed3e146101ec578063f2fde38b146101ff575f80fd5b8063715018a61461019b57806379cc6790146101a35780638da5cb5b146101b6575f80fd5b806323b872dd116100c357806323b872dd1461013c578063313ce5671461014f57806340c10f191461015e57806370a0823114610173575f80fd5b806306fdde03146100e9578063095ea7b31461010757806318160ddd1461012a575b5f80fd5b6100f1610212565b6040516100fe91906107c7565b60405180910390f35b61011a610115366004610817565b6102a2565b60405190151581526020016100fe565b6002545b6040519081526020016100fe565b61011a61014a36600461083f565b6102bb565b604051601281526020016100fe565b61017161016c366004610817565b6102de565b005b61012e610181366004610879565b6001600160a01b03165f9081526020819052604090205490565b6101716102f4565b6101716101b1366004610817565b610307565b6005546040516001600160a01b0390911681526020016100fe565b6100f1610398565b61011a6101e7366004610817565b6103a7565b61012e6101fa366004610899565b6103b4565b61017161020d366004610879565b6103de565b606060038054610221906108ca565b80601f016020809104026020016040519081016040528092919081815260200182805461024d906108ca565b80156102985780601f1061026f57610100808354040283529160200191610298565b820191905f5260205f20905b81548152906001019060200180831161027b57829003601f168201915b5050505050905090565b5f336102af81858561041b565b60019150505b92915050565b5f336102c8858285610428565b6102d385858561048c565b506001949350505050565b6102e66104e9565b6102f08282610516565b5050565b6102fc6104e9565b6103055f61054a565b565b5f61031283336103b4565b9050818110156103755760405162461bcd60e51b8152602060048201526024808201527f45524332303a206275726e20616d6f756e74206578636565647320616c6c6f77604482015263616e636560e01b60648201526084015b60405180910390fd5b61038983336103848585610916565b61041b565b610393838361059b565b505050565b606060048054610221906108ca565b5f336102af81858561048c565b6001600160a01b039182165f90815260016020908152604080832093909416825291909152205490565b6103e66104e9565b6001600160a01b03811661040f57604051631e4fbdf760e01b81525f600482015260240161036c565b6104188161054a565b50565b61039383838360016105cf565b5f61043384846103b4565b90505f19811015610486578181101561047857604051637dc7a0d960e11b81526001600160a01b0384166004820152602481018290526044810183905260640161036c565b61048684848484035f6105cf565b50505050565b6001600160a01b0383166104b557604051634b637e8f60e11b81525f600482015260240161036c565b6001600160a01b0382166104de5760405163ec442f0560e01b81525f600482015260240161036c565b6103938383836106a1565b6005546001600160a01b031633146103055760405163118cdaa760e01b815233600482015260240161036c565b6001600160a01b03821661053f5760405163ec442f0560e01b81525f600482015260240161036c565b6102f05f83836106a1565b600580546001600160a01b038381166001600160a01b0319831681179093556040519116919082907f8be0079c531659141344cd1fd0a4f28419497f9722a3daafe3b4186f6b6457e0905f90a35050565b6001600160a01b0382166105c457604051634b637e8f60e11b81525f600482015260240161036c565b6102f0825f836106a1565b6001600160a01b0384166105f85760405163e602df0560e01b81525f600482015260240161036c565b6001600160a01b03831661062157604051634a1406b160e11b81525f600482015260240161036c565b6001600160a01b038085165f908152600160209081526040808320938716835292905220829055801561048657826001600160a01b0316846001600160a01b03167f8c5be1e5ebec7d5bd14f71427d1e84f3dd0314c0f7b2291e5b200ac8c7c3b9258460405161069391815260200190565b60405180910390a350505050565b6001600160a01b0383166106cb578060025f8282546106c09190610929565b9091555061073b9050565b6001600160a01b0383165f908152602081905260409020548181101561071d5760405163391434e360e21b81526001600160a01b0385166004820152602481018290526044810183905260640161036c565b6001600160a01b0384165f9081526020819052604090209082900390555b6001600160a01b03821661075757600280548290039055610775565b6001600160a01b0382165f9081526020819052604090208054820190555b816001600160a01b0316836001600160a01b03167fddf252ad1be2c89b69c2b068fc378daa952ba7f163c4a11628f55a4df523b3ef836040516107ba91815260200190565b60405180910390a3505050565b602081525f82518060208401528060208501604085015e5f604082850101526040601f19601f83011684010191505092915050565b80356001600160a01b0381168114610812575f80fd5b919050565b5f8060408385031215610828575f80fd5b610831836107fc565b946020939093013593505050565b5f805f60608486031215610851575f80fd5b61085a846107fc565b9250610868602085016107fc565b929592945050506040919091013590565b5f60208284031215610889575f80fd5b610892826107fc565b9392505050565b5f80604083850312156108aa575f80fd5b6108b3836107fc565b91506108c1602084016107fc565b90509250929050565b600181811c908216806108de57607f821691505b6020821081036108fc57634e487b7160e01b5f52602260045260245ffd5b50919050565b634e487b7160e01b5f52601160045260245ffd5b818103818111156102b5576102b5610902565b808201808211156102b5576102b5610902560000000000000000000000000000000000000000000000000000000000000040000000000000000000000000000000000000000000000000000000000000008000000000000000000000000000000000000000000000000000000000000000094d61726b6574204e4f000000000000000000000000000000000000000000000000000000000000000000000000000000000000000000000000000000000000024e4f000000000000000000000000000000000000000000000000000000000000"
        }
      ],
      "isFixedGasLimit": false
    },
    {
      "hash": "0x45e93c7f793fa13e20208684e85e5236d1e4a2ce8175587fc0e801b75d02f198",
      "transactionType": "CALL",
      "contractName": null,
      "contractAddress": "0x77f3f0f59342e6d2e7510cf853eea7ee6143ca80",
      "function": "createMarketAndDepositCollateral((address,address,address,uint256,string,string,uint256,uint256))",
      "arguments": [
        "(0x39dc391f8FFE71156212C7c3196Ef09B9C0bdDf8, 0x39dc391f8FFE71156212C7c3196Ef09B9C0bdDf8, 0xF1e80ceCE49EE7f11469DA001c98502E8Bc38397, 100000000, Test market 2, Market resolves to YES if BTC is above 80000s, 2592000, 0)"
      ],
      "transaction": {
        "from": "0x39dc391f8ffe71156212c7c3196ef09b9c0bddf8",
        "to": "0x77f3f0f59342e6d2e7510cf853eea7ee6143ca80",
        "gas": "0x269ed5",
        "value": "0x0",
        "input": "0xcb916b33000000000000000000000000000000000000000000000000000000000000002000000000000000000000000039dc391f8ffe71156212c7c3196ef09b9c0bddf800000000000000000000000039dc391f8ffe71156212c7c3196ef09b9c0bddf8000000000000000000000000f1e80cece49ee7f11469da001c98502e8bc383970000000000000000000000000000000000000000000000000000000005f5e100000000000000000000000000000000000000000000000000000000000000010000000000000000000000000000000000000000000000000000000000000001400000000000000000000000000000000000000000000000000000000000278d000000000000000000000000000000000000000000000000000000000000000000000000000000000000000000000000000000000000000000000000000000000d54657374206d61726b6574203200000000000000000000000000000000000000000000000000000000000000000000000000000000000000000000000000002d4d61726b6574207265736f6c76657320746f20594553206966204254432069732061626f76652038303030307300000000000000000000000000000000000000",
        "nonce": "0x100",
        "chainId": "0x515"
      },
      "additionalContracts": [
        {
          "transactionType": "CREATE",
          "address": "0x621700bc53a18cb710d5341655d6ec6ff3f73b14",
          "initCode": "0x608060405234801561000f575f80fd5b50604051610c65380380610c6583398101604081905261002e91610179565b338282600361003d8382610262565b50600461004a8282610262565b5050506001600160a01b03811661007a57604051631e4fbdf760e01b81525f600482015260240160405180910390fd5b6100838161008b565b50505061031c565b600580546001600160a01b038381166001600160a01b0319831681179093556040519116919082907f8be0079c531659141344cd1fd0a4f28419497f9722a3daafe3b4186f6b6457e0905f90a35050565b634e487b7160e01b5f52604160045260245ffd5b5f82601f8301126100ff575f80fd5b81516001600160401b03811115610118576101186100dc565b604051601f8201601f19908116603f011681016001600160401b0381118282101715610146576101466100dc565b60405281815283820160200185101561015d575f80fd5b8160208501602083015e5f918101602001919091529392505050565b5f806040838503121561018a575f80fd5b82516001600160401b0381111561019f575f80fd5b6101ab858286016100f0565b602085015190935090506001600160401b038111156101c8575f80fd5b6101d4858286016100f0565b9150509250929050565b600181811c908216806101f257607f821691505b60208210810361021057634e487b7160e01b5f52602260045260245ffd5b50919050565b601f82111561025d57805f5260205f20601f840160051c8101602085101561023b5750805b601f840160051c820191505b8181101561025a575f8155600101610247565b50505b505050565b81516001600160401b0381111561027b5761027b6100dc565b61028f8161028984546101de565b84610216565b6020601f8211600181146102c1575f83156102aa5750848201515b5f19600385901b1c1916600184901b17845561025a565b5f84815260208120601f198516915b828110156102f057878501518255602094850194600190920191016102d0565b508482101561030d57868401515f19600387901b60f8161c191681555b50505050600190811b01905550565b61093c806103295f395ff3fe608060405234801561000f575f80fd5b50600436106100e5575f3560e01c8063715018a61161008857806395d89b411161006357806395d89b41146101d1578063a9059cbb146101d9578063dd62ed3e146101ec578063f2fde38b146101ff575f80fd5b8063715018a61461019b57806379cc6790146101a35780638da5cb5b146101b6575f80fd5b806323b872dd116100c357806323b872dd1461013c578063313ce5671461014f57806340c10f191461015e57806370a0823114610173575f80fd5b806306fdde03146100e9578063095ea7b31461010757806318160ddd1461012a575b5f80fd5b6100f1610212565b6040516100fe91906107c7565b60405180910390f35b61011a610115366004610817565b6102a2565b60405190151581526020016100fe565b6002545b6040519081526020016100fe565b61011a61014a36600461083f565b6102bb565b604051601281526020016100fe565b61017161016c366004610817565b6102de565b005b61012e610181366004610879565b6001600160a01b03165f9081526020819052604090205490565b6101716102f4565b6101716101b1366004610817565b610307565b6005546040516001600160a01b0390911681526020016100fe565b6100f1610398565b61011a6101e7366004610817565b6103a7565b61012e6101fa366004610899565b6103b4565b61017161020d366004610879565b6103de565b606060038054610221906108ca565b80601f016020809104026020016040519081016040528092919081815260200182805461024d906108ca565b80156102985780601f1061026f57610100808354040283529160200191610298565b820191905f5260205f20905b81548152906001019060200180831161027b57829003601f168201915b5050505050905090565b5f336102af81858561041b565b60019150505b92915050565b5f336102c8858285610428565b6102d385858561048c565b506001949350505050565b6102e66104e9565b6102f08282610516565b5050565b6102fc6104e9565b6103055f61054a565b565b5f61031283336103b4565b9050818110156103755760405162461bcd60e51b8152602060048201526024808201527f45524332303a206275726e20616d6f756e74206578636565647320616c6c6f77604482015263616e636560e01b60648201526084015b60405180910390fd5b61038983336103848585610916565b61041b565b610393838361059b565b505050565b606060048054610221906108ca565b5f336102af81858561048c565b6001600160a01b039182165f90815260016020908152604080832093909416825291909152205490565b6103e66104e9565b6001600160a01b03811661040f57604051631e4fbdf760e01b81525f600482015260240161036c565b6104188161054a565b50565b61039383838360016105cf565b5f61043384846103b4565b90505f19811015610486578181101561047857604051637dc7a0d960e11b81526001600160a01b0384166004820152602481018290526044810183905260640161036c565b61048684848484035f6105cf565b50505050565b6001600160a01b0383166104b557604051634b637e8f60e11b81525f600482015260240161036c565b6001600160a01b0382166104de5760405163ec442f0560e01b81525f600482015260240161036c565b6103938383836106a1565b6005546001600160a01b031633146103055760405163118cdaa760e01b815233600482015260240161036c565b6001600160a01b03821661053f5760405163ec442f0560e01b81525f600482015260240161036c565b6102f05f83836106a1565b600580546001600160a01b038381166001600160a01b0319831681179093556040519116919082907f8be0079c531659141344cd1fd0a4f28419497f9722a3daafe3b4186f6b6457e0905f90a35050565b6001600160a01b0382166105c457604051634b637e8f60e11b81525f600482015260240161036c565b6102f0825f836106a1565b6001600160a01b0384166105f85760405163e602df0560e01b81525f600482015260240161036c565b6001600160a01b03831661062157604051634a1406b160e11b81525f600482015260240161036c565b6001600160a01b038085165f908152600160209081526040808320938716835292905220829055801561048657826001600160a01b0316846001600160a01b03167f8c5be1e5ebec7d5bd14f71427d1e84f3dd0314c0f7b2291e5b200ac8c7c3b9258460405161069391815260200190565b60405180910390a350505050565b6001600160a01b0383166106cb578060025f8282546106c09190610929565b9091555061073b9050565b6001600160a01b0383165f908152602081905260409020548181101561071d5760405163391434e360e21b81526001600160a01b0385166004820152602481018290526044810183905260640161036c565b6001600160a01b0384165f9081526020819052604090209082900390555b6001600160a01b03821661075757600280548290039055610775565b6001600160a01b0382165f9081526020819052604090208054820190555b816001600160a01b0316836001600160a01b03167fddf252ad1be2c89b69c2b068fc378daa952ba7f163c4a11628f55a4df523b3ef836040516107ba91815260200190565b60405180910390a3505050565b602081525f82518060208401528060208501604085015e5f604082850101526040601f19601f83011684010191505092915050565b80356001600160a01b0381168114610812575f80fd5b919050565b5f8060408385031215610828575f80fd5b610831836107fc565b946020939093013593505050565b5f805f60608486031215610851575f80fd5b61085a846107fc565b9250610868602085016107fc565b929592945050506040919091013590565b5f60208284031215610889575f80fd5b610892826107fc565b9392505050565b5f80604083850312156108aa575f80fd5b6108b3836107fc565b91506108c1602084016107fc565b90509250929050565b600181811c908216806108de57607f821691505b6020821081036108fc57634e487b7160e01b5f52602260045260245ffd5b50919050565b634e487b7160e01b5f52601160045260245ffd5b818103818111156102b5576102b5610902565b808201808211156102b5576102b56109025600000000000000000000000000000000000000000000000000000000000000400000000000000000000000000000000000000000000000000000000000000080000000000000000000000000000000000000000000000000000000000000000a4d61726b6574205945530000000000000000000000000000000000000000000000000000000000000000000000000000000000000000000000000000000000035945530000000000000000000000000000000000000000000000000000000000"
        },
        {
          "transactionType": "CREATE",
          "address": "0xe0bfce014533efe099b669787373466fa6977698",
          "initCode": "0x608060405234801561000f575f80fd5b50604051610c65380380610c6583398101604081905261002e91610179565b338282600361003d8382610262565b50600461004a8282610262565b5050506001600160a01b03811661007a57604051631e4fbdf760e01b81525f600482015260240160405180910390fd5b6100838161008b565b50505061031c565b600580546001600160a01b038381166001600160a01b0319831681179093556040519116919082907f8be0079c531659141344cd1fd0a4f28419497f9722a3daafe3b4186f6b6457e0905f90a35050565b634e487b7160e01b5f52604160045260245ffd5b5f82601f8301126100ff575f80fd5b81516001600160401b03811115610118576101186100dc565b604051601f8201601f19908116603f011681016001600160401b0381118282101715610146576101466100dc565b60405281815283820160200185101561015d575f80fd5b8160208501602083015e5f918101602001919091529392505050565b5f806040838503121561018a575f80fd5b82516001600160401b0381111561019f575f80fd5b6101ab858286016100f0565b602085015190935090506001600160401b038111156101c8575f80fd5b6101d4858286016100f0565b9150509250929050565b600181811c908216806101f257607f821691505b60208210810361021057634e487b7160e01b5f52602260045260245ffd5b50919050565b601f82111561025d57805f5260205f20601f840160051c8101602085101561023b5750805b601f840160051c820191505b8181101561025a575f8155600101610247565b50505b505050565b81516001600160401b0381111561027b5761027b6100dc565b61028f8161028984546101de565b84610216565b6020601f8211600181146102c1575f83156102aa5750848201515b5f19600385901b1c1916600184901b17845561025a565b5f84815260208120601f198516915b828110156102f057878501518255602094850194600190920191016102d0565b508482101561030d57868401515f19600387901b60f8161c191681555b50505050600190811b01905550565b61093c806103295f395ff3fe608060405234801561000f575f80fd5b50600436106100e5575f3560e01c8063715018a61161008857806395d89b411161006357806395d89b41146101d1578063a9059cbb146101d9578063dd62ed3e146101ec578063f2fde38b146101ff575f80fd5b8063715018a61461019b57806379cc6790146101a35780638da5cb5b146101b6575f80fd5b806323b872dd116100c357806323b872dd1461013c578063313ce5671461014f57806340c10f191461015e57806370a0823114610173575f80fd5b806306fdde03146100e9578063095ea7b31461010757806318160ddd1461012a575b5f80fd5b6100f1610212565b6040516100fe91906107c7565b60405180910390f35b61011a610115366004610817565b6102a2565b60405190151581526020016100fe565b6002545b6040519081526020016100fe565b61011a61014a36600461083f565b6102bb565b604051601281526020016100fe565b61017161016c366004610817565b6102de565b005b61012e610181366004610879565b6001600160a01b03165f9081526020819052604090205490565b6101716102f4565b6101716101b1366004610817565b610307565b6005546040516001600160a01b0390911681526020016100fe565b6100f1610398565b61011a6101e7366004610817565b6103a7565b61012e6101fa366004610899565b6103b4565b61017161020d366004610879565b6103de565b606060038054610221906108ca565b80601f016020809104026020016040519081016040528092919081815260200182805461024d906108ca565b80156102985780601f1061026f57610100808354040283529160200191610298565b820191905f5260205f20905b81548152906001019060200180831161027b57829003601f168201915b5050505050905090565b5f336102af81858561041b565b60019150505b92915050565b5f336102c8858285610428565b6102d385858561048c565b506001949350505050565b6102e66104e9565b6102f08282610516565b5050565b6102fc6104e9565b6103055f61054a565b565b5f61031283336103b4565b9050818110156103755760405162461bcd60e51b8152602060048201526024808201527f45524332303a206275726e20616d6f756e74206578636565647320616c6c6f77604482015263616e636560e01b60648201526084015b60405180910390fd5b61038983336103848585610916565b61041b565b610393838361059b565b505050565b606060048054610221906108ca565b5f336102af81858561048c565b6001600160a01b039182165f90815260016020908152604080832093909416825291909152205490565b6103e66104e9565b6001600160a01b03811661040f57604051631e4fbdf760e01b81525f600482015260240161036c565b6104188161054a565b50565b61039383838360016105cf565b5f61043384846103b4565b90505f19811015610486578181101561047857604051637dc7a0d960e11b81526001600160a01b0384166004820152602481018290526044810183905260640161036c565b61048684848484035f6105cf565b50505050565b6001600160a01b0383166104b557604051634b637e8f60e11b81525f600482015260240161036c565b6001600160a01b0382166104de5760405163ec442f0560e01b81525f600482015260240161036c565b6103938383836106a1565b6005546001600160a01b031633146103055760405163118cdaa760e01b815233600482015260240161036c565b6001600160a01b03821661053f5760405163ec442f0560e01b81525f600482015260240161036c565b6102f05f83836106a1565b600580546001600160a01b038381166001600160a01b0319831681179093556040519116919082907f8be0079c531659141344cd1fd0a4f28419497f9722a3daafe3b4186f6b6457e0905f90a35050565b6001600160a01b0382166105c457604051634b637e8f60e11b81525f600482015260240161036c565b6102f0825f836106a1565b6001600160a01b0384166105f85760405163e602df0560e01b81525f600482015260240161036c565b6001600160a01b03831661062157604051634a1406b160e11b81525f600482015260240161036c565b6001600160a01b038085165f908152600160209081526040808320938716835292905220829055801561048657826001600160a01b0316846001600160a01b03167f8c5be1e5ebec7d5bd14f71427d1e84f3dd0314c0f7b2291e5b200ac8c7c3b9258460405161069391815260200190565b60405180910390a350505050565b6001600160a01b0383166106cb578060025f8282546106c09190610929565b9091555061073b9050565b6001600160a01b0383165f908152602081905260409020548181101561071d5760405163391434e360e21b81526001600160a01b0385166004820152602481018290526044810183905260640161036c565b6001600160a01b0384165f9081526020819052604090209082900390555b6001600160a01b03821661075757600280548290039055610775565b6001600160a01b0382165f9081526020819052604090208054820190555b816001600160a01b0316836001600160a01b03167fddf252ad1be2c89b69c2b068fc378daa952ba7f163c4a11628f55a4df523b3ef836040516107ba91815260200190565b60405180910390a3505050565b602081525f82518060208401528060208501604085015e5f604082850101526040601f19601f83011684010191505092915050565b80356001600160a01b0381168114610812575f80fd5b919050565b5f8060408385031215610828575f80fd5b610831836107fc565b946020939093013593505050565b5f805f60608486031215610851575f80fd5b61085a846107fc565b9250610868602085016107fc565b929592945050506040919091013590565b5f60208284031215610889575f80fd5b610892826107fc565b9392505050565b5f80604083850312156108aa575f80fd5b6108b3836107fc565b91506108c1602084016107fc565b90509250929050565b600181811c908216806108de57607f821691505b6020821081036108fc57634e487b7160e01b5f52602260045260245ffd5b50919050565b634e487b7160e01b5f52601160045260245ffd5b818103818111156102b5576102b5610902565b808201808211156102b5576102b5610902560000000000000000000000000000000000000000000000000000000000000040000000000000000000000000000000000000000000000000000000000000008000000000000000000000000000000000000000000000000000000000000000094d61726b6574204e4f000000000000000000000000000000000000000000000000000000000000000000000000000000000000000000000000000000000000024e4f000000000000000000000000000000000000000000000000000000000000"
        }
      ],
      "isFixedGasLimit": false
    },
    {
      "hash": "0x21938c78fd98bc699e2e8cda81b637edfcf342b5a5514a05961e6eebf17ec767",
      "transactionType": "CALL",
      "contractName": "OutcomeToken",
      "contractAddress": "0xc09d1f88f792719e9c0cf97a89874acd9970ba8c",
      "function": "approve(address,uint256)",
      "arguments": [
        "0xbd3175cfEE03fF0DBb8F2AC7bB7aDcF86Cb105BD",
        "115792089237316195423570985008687907853269984665640564039457584007913129639935"
      ],
      "transaction": {
        "from": "0x39dc391f8ffe71156212c7c3196ef09b9c0bddf8",
        "to": "0xc09d1f88f792719e9c0cf97a89874acd9970ba8c",
        "gas": "0xfbfa",
        "value": "0x0",
        "input": "0x095ea7b3000000000000000000000000bd3175cfee03ff0dbb8f2ac7bb7adcf86cb105bdffffffffffffffffffffffffffffffffffffffffffffffffffffffffffffffff",
        "nonce": "0x101",
        "chainId": "0x515"
      },
      "additionalContracts": [],
      "isFixedGasLimit": false
    },
    {
      "hash": "0xdf799160a99680a1e0c51d64542a0c2a2b181e84e7e3751134f73998914cd251",
      "transactionType": "CALL",
      "contractName": "OutcomeToken",
      "contractAddress": "0x08e71b7d99762451082d008641ae28bcf4470f9f",
      "function": "approve(address,uint256)",
      "arguments": [
        "0xbd3175cfEE03fF0DBb8F2AC7bB7aDcF86Cb105BD",
        "115792089237316195423570985008687907853269984665640564039457584007913129639935"
      ],
      "transaction": {
        "from": "0x39dc391f8ffe71156212c7c3196ef09b9c0bddf8",
        "to": "0x08e71b7d99762451082d008641ae28bcf4470f9f",
        "gas": "0xfbfa",
        "value": "0x0",
        "input": "0x095ea7b3000000000000000000000000bd3175cfee03ff0dbb8f2ac7bb7adcf86cb105bdffffffffffffffffffffffffffffffffffffffffffffffffffffffffffffffff",
        "nonce": "0x102",
        "chainId": "0x515"
      },
      "additionalContracts": [],
      "isFixedGasLimit": false
    },
    {
      "hash": "0xafa695f263b30e0073108a33f79a81d1912b97eb22aad57232dc947887820340",
      "transactionType": "CALL",
      "contractName": "ERC20Mock",
      "contractAddress": "0xf1e80cece49ee7f11469da001c98502e8bc38397",
      "function": "approve(address,uint256)",
      "arguments": [
        "0xbd3175cfEE03fF0DBb8F2AC7bB7aDcF86Cb105BD",
        "115792089237316195423570985008687907853269984665640564039457584007913129639935"
      ],
      "transaction": {
        "from": "0x39dc391f8ffe71156212c7c3196ef09b9c0bddf8",
        "to": "0xf1e80cece49ee7f11469da001c98502e8bc38397",
        "gas": "0xfbda",
        "value": "0x0",
        "input": "0x095ea7b3000000000000000000000000bd3175cfee03ff0dbb8f2ac7bb7adcf86cb105bdffffffffffffffffffffffffffffffffffffffffffffffffffffffffffffffff",
        "nonce": "0x103",
        "chainId": "0x515"
      },
      "additionalContracts": [],
      "isFixedGasLimit": false
    },
    {
      "hash": "0x416898c983f44e5af6809d44ab56af6de4cb47d9d25a5a2e987a27e1a2962c11",
      "transactionType": "CALL",
      "contractName": null,
      "contractAddress": "0xbd3175cfee03ff0dbb8f2ac7bb7adcf86cb105bd",
      "function": "modifyLiquidity((address,address,uint24,int24,address),(int24,int24,int256,bytes32),bytes)",
      "arguments": [
        "(0xC09d1f88F792719e9c0cF97a89874aCd9970Ba8c, 0xF1e80ceCE49EE7f11469DA001c98502E8Bc38397, 10000, 100, 0x77F3F0F59342E6D2E7510cf853EeA7Ee6143Ca80)",
        "(-9200, -100, 122864222, 0x0000000000000000000000000000000000000000000000000000000000000000)",
        "0x"
      ],
      "transaction": {
        "from": "0x39dc391f8ffe71156212c7c3196ef09b9c0bddf8",
        "to": "0xbd3175cfee03ff0dbb8f2ac7bb7adcf86cb105bd",
        "gas": "0x5b614",
        "value": "0x0",
        "input": "0x5a6bcfda000000000000000000000000c09d1f88f792719e9c0cf97a89874acd9970ba8c000000000000000000000000f1e80cece49ee7f11469da001c98502e8bc383970000000000000000000000000000000000000000000000000000000000002710000000000000000000000000000000000000000000000000000000000000006400000000000000000000000077f3f0f59342e6d2e7510cf853eea7ee6143ca80ffffffffffffffffffffffffffffffffffffffffffffffffffffffffffffdc10ffffffffffffffffffffffffffffffffffffffffffffffffffffffffffffff9c000000000000000000000000000000000000000000000000000000000752c25e000000000000000000000000000000000000000000000000000000000000000000000000000000000000000000000000000000000000000000000000000001400000000000000000000000000000000000000000000000000000000000000000",
        "nonce": "0x104",
        "chainId": "0x515"
      },
      "additionalContracts": [],
      "isFixedGasLimit": false
    },
    {
      "hash": "0x953c0ff25374d4a6cd177abdd716aa6972df9d5a3709acf1ff0ac215a5bef206",
      "transactionType": "CALL",
      "contractName": null,
      "contractAddress": "0xbd3175cfee03ff0dbb8f2ac7bb7adcf86cb105bd",
      "function": "modifyLiquidity((address,address,uint24,int24,address),(int24,int24,int256,bytes32),bytes)",
      "arguments": [
        "(0x08E71b7d99762451082d008641aE28bcF4470f9f, 0xF1e80ceCE49EE7f11469DA001c98502E8Bc38397, 10000, 100, 0x77F3F0F59342E6D2E7510cf853EeA7Ee6143Ca80)",
        "(-9200, -100, 122864222, 0x0000000000000000000000000000000000000000000000000000000000000000)",
        "0x"
      ],
      "transaction": {
        "from": "0x39dc391f8ffe71156212c7c3196ef09b9c0bddf8",
        "to": "0xbd3175cfee03ff0dbb8f2ac7bb7adcf86cb105bd",
        "gas": "0x559bf",
        "value": "0x0",
        "input": "0x5a6bcfda00000000000000000000000008e71b7d99762451082d008641ae28bcf4470f9f000000000000000000000000f1e80cece49ee7f11469da001c98502e8bc383970000000000000000000000000000000000000000000000000000000000002710000000000000000000000000000000000000000000000000000000000000006400000000000000000000000077f3f0f59342e6d2e7510cf853eea7ee6143ca80ffffffffffffffffffffffffffffffffffffffffffffffffffffffffffffdc10ffffffffffffffffffffffffffffffffffffffffffffffffffffffffffffff9c000000000000000000000000000000000000000000000000000000000752c25e000000000000000000000000000000000000000000000000000000000000000000000000000000000000000000000000000000000000000000000000000001400000000000000000000000000000000000000000000000000000000000000000",
        "nonce": "0x105",
        "chainId": "0x515"
      },
      "additionalContracts": [],
      "isFixedGasLimit": false
    },
    {
      "hash": "0x4914576bf3cfa418b4a10fd0dca41f0ab6a08444018dadb1ac765c3ca0c2c3d3",
      "transactionType": "CALL",
      "contractName": "OutcomeToken",
      "contractAddress": "0x621700bc53a18cb710d5341655d6ec6ff3f73b14",
      "function": "approve(address,uint256)",
      "arguments": [
        "0xbd3175cfEE03fF0DBb8F2AC7bB7aDcF86Cb105BD",
        "115792089237316195423570985008687907853269984665640564039457584007913129639935"
      ],
      "transaction": {
        "from": "0x39dc391f8ffe71156212c7c3196ef09b9c0bddf8",
        "to": "0x621700bc53a18cb710d5341655d6ec6ff3f73b14",
        "gas": "0xfbfa",
        "value": "0x0",
        "input": "0x095ea7b3000000000000000000000000bd3175cfee03ff0dbb8f2ac7bb7adcf86cb105bdffffffffffffffffffffffffffffffffffffffffffffffffffffffffffffffff",
        "nonce": "0x106",
        "chainId": "0x515"
      },
      "additionalContracts": [],
      "isFixedGasLimit": false
    },
    {
      "hash": "0x3eb5c8159c2f6aeed72126311857471d03f9078d8362373824b584ba1a45b440",
      "transactionType": "CALL",
      "contractName": "OutcomeToken",
      "contractAddress": "0xe0bfce014533efe099b669787373466fa6977698",
      "function": "approve(address,uint256)",
      "arguments": [
        "0xbd3175cfEE03fF0DBb8F2AC7bB7aDcF86Cb105BD",
        "115792089237316195423570985008687907853269984665640564039457584007913129639935"
      ],
      "transaction": {
        "from": "0x39dc391f8ffe71156212c7c3196ef09b9c0bddf8",
        "to": "0xe0bfce014533efe099b669787373466fa6977698",
        "gas": "0xfbfa",
        "value": "0x0",
        "input": "0x095ea7b3000000000000000000000000bd3175cfee03ff0dbb8f2ac7bb7adcf86cb105bdffffffffffffffffffffffffffffffffffffffffffffffffffffffffffffffff",
        "nonce": "0x107",
        "chainId": "0x515"
      },
      "additionalContracts": [],
      "isFixedGasLimit": false
    },
    {
      "hash": "0x8c18d59952b9204e161014f73adfb7b8e7df57f273f4d51cd36918afd0fe0f1d",
      "transactionType": "CALL",
      "contractName": "ERC20Mock",
      "contractAddress": "0xf1e80cece49ee7f11469da001c98502e8bc38397",
      "function": "approve(address,uint256)",
      "arguments": [
        "0xbd3175cfEE03fF0DBb8F2AC7bB7aDcF86Cb105BD",
        "115792089237316195423570985008687907853269984665640564039457584007913129639935"
      ],
      "transaction": {
        "from": "0x39dc391f8ffe71156212c7c3196ef09b9c0bddf8",
        "to": "0xf1e80cece49ee7f11469da001c98502e8bc38397",
        "gas": "0x98fb",
        "value": "0x0",
        "input": "0x095ea7b3000000000000000000000000bd3175cfee03ff0dbb8f2ac7bb7adcf86cb105bdffffffffffffffffffffffffffffffffffffffffffffffffffffffffffffffff",
        "nonce": "0x108",
        "chainId": "0x515"
      },
      "additionalContracts": [],
      "isFixedGasLimit": false
    },
    {
      "hash": "0x59a52dd473f5f28b429ed94c74230ade9ca268361ff4d83b95d672da4c517220",
      "transactionType": "CALL",
      "contractName": null,
      "contractAddress": "0xbd3175cfee03ff0dbb8f2ac7bb7adcf86cb105bd",
      "function": "modifyLiquidity((address,address,uint24,int24,address),(int24,int24,int256,bytes32),bytes)",
      "arguments": [
        "(0x621700bc53A18cb710d5341655d6ec6ff3F73b14, 0xF1e80ceCE49EE7f11469DA001c98502E8Bc38397, 10000, 100, 0x77F3F0F59342E6D2E7510cf853EeA7Ee6143Ca80)",
        "(-9200, -100, 122864222, 0x0000000000000000000000000000000000000000000000000000000000000000)",
        "0x"
      ],
      "transaction": {
        "from": "0x39dc391f8ffe71156212c7c3196ef09b9c0bddf8",
        "to": "0xbd3175cfee03ff0dbb8f2ac7bb7adcf86cb105bd",
        "gas": "0x559bf",
        "value": "0x0",
        "input": "0x5a6bcfda000000000000000000000000621700bc53a18cb710d5341655d6ec6ff3f73b14000000000000000000000000f1e80cece49ee7f11469da001c98502e8bc383970000000000000000000000000000000000000000000000000000000000002710000000000000000000000000000000000000000000000000000000000000006400000000000000000000000077f3f0f59342e6d2e7510cf853eea7ee6143ca80ffffffffffffffffffffffffffffffffffffffffffffffffffffffffffffdc10ffffffffffffffffffffffffffffffffffffffffffffffffffffffffffffff9c000000000000000000000000000000000000000000000000000000000752c25e000000000000000000000000000000000000000000000000000000000000000000000000000000000000000000000000000000000000000000000000000001400000000000000000000000000000000000000000000000000000000000000000",
        "nonce": "0x109",
        "chainId": "0x515"
      },
      "additionalContracts": [],
      "isFixedGasLimit": false
    },
    {
      "hash": "0xa368ee43d5f8b3aadccefbed9f6ceaf65af248b74e4f001399feb500149cd3af",
      "transactionType": "CALL",
      "contractName": null,
      "contractAddress": "0xbd3175cfee03ff0dbb8f2ac7bb7adcf86cb105bd",
      "function": "modifyLiquidity((address,address,uint24,int24,address),(int24,int24,int256,bytes32),bytes)",
      "arguments": [
        "(0xE0BfcE014533efE099B669787373466fa6977698, 0xF1e80ceCE49EE7f11469DA001c98502E8Bc38397, 10000, 100, 0x77F3F0F59342E6D2E7510cf853EeA7Ee6143Ca80)",
        "(-9200, -100, 122864222, 0x0000000000000000000000000000000000000000000000000000000000000000)",
        "0x"
      ],
      "transaction": {
        "from": "0x39dc391f8ffe71156212c7c3196ef09b9c0bddf8",
        "to": "0xbd3175cfee03ff0dbb8f2ac7bb7adcf86cb105bd",
        "gas": "0x5aa64",
        "value": "0x0",
        "input": "0x5a6bcfda000000000000000000000000e0bfce014533efe099b669787373466fa6977698000000000000000000000000f1e80cece49ee7f11469da001c98502e8bc383970000000000000000000000000000000000000000000000000000000000002710000000000000000000000000000000000000000000000000000000000000006400000000000000000000000077f3f0f59342e6d2e7510cf853eea7ee6143ca80ffffffffffffffffffffffffffffffffffffffffffffffffffffffffffffdc10ffffffffffffffffffffffffffffffffffffffffffffffffffffffffffffff9c000000000000000000000000000000000000000000000000000000000752c25e000000000000000000000000000000000000000000000000000000000000000000000000000000000000000000000000000000000000000000000000000001400000000000000000000000000000000000000000000000000000000000000000",
        "nonce": "0x10a",
        "chainId": "0x515"
      },
      "additionalContracts": [],
      "isFixedGasLimit": false
    }
  ],
  "receipts": [
    {
      "status": "0x1",
      "cumulativeGasUsed": "0xa7646",
      "logs": [],
      "logsBloom": "0x00000000000000000000000000000000000000000000000000000000000000000000000000000000000000000000000000000000000000000000000000000000000000000000000000000000000000000000000000000000000000000000000000000000000000000000000000000000000000000000000000000000000000000000000000000000000000000000000000000000000000000000000000000000000000000000000000000000000000000000000000000000000000000000000000000000000000000000000000000000000000000000000000000000000000000000000000000000000000000000000000000000000000000000000000000000",
      "type": "0x2",
      "transactionHash": "0x64f595d1cc45ec9f869c4a7ad300f67fe197647a93c1e6abb1a9335cb7ed25e5",
      "transactionIndex": "0x2",
      "blockHash": "0xa6a26de5202b4464047308226a7ef5f386b3ed6bdaefb054e5c689aabd707137",
      "blockNumber": "0xf8f751",
      "gasUsed": "0x85336",
      "effectiveGasPrice": "0x551",
      "from": "0x39dc391f8ffe71156212c7c3196ef09b9c0bddf8",
      "to": null,
      "contractAddress": "0xf1e80cece49ee7f11469da001c98502e8bc38397",
      "l1BaseFeeScalar": "0x7d0",
      "l1BlobBaseFee": "0x1",
      "l1BlobBaseFeeScalar": "0xdbba0",
      "l1Fee": "0x703ff786",
      "l1GasPrice": "0x21e6e20",
      "l1GasUsed": "0x6778"
    },
    {
      "status": "0x1",
      "cumulativeGasUsed": "0xb816e",
      "logs": [
        {
          "address": "0xf1e80cece49ee7f11469da001c98502e8bc38397",
          "topics": [
            "0xddf252ad1be2c89b69c2b068fc378daa952ba7f163c4a11628f55a4df523b3ef",
            "0x0000000000000000000000000000000000000000000000000000000000000000",
            "0x00000000000000000000000039dc391f8ffe71156212c7c3196ef09b9c0bddf8"
          ],
          "data": "0x000000000000000000000000000000000000000000000000000000e8d4a51000",
          "blockHash": "0xa6a26de5202b4464047308226a7ef5f386b3ed6bdaefb054e5c689aabd707137",
          "blockNumber": "0xf8f751",
          "transactionHash": "0x764428b725c33795b247745fd208a40ee160b13743a079d353afb7d6472560ff",
          "transactionIndex": "0x3",
          "logIndex": "0x2",
          "removed": false
        }
      ],
      "logsBloom": "0x00000000000000000000000000000000000000000000000000000002000000000000000000000040000000000000000000000000000000000000000100000000000000000000000000000008000000000000000000000000000000000000000000000000020000000000000000000800000000000000000000000010080000000000000000000000000000000000000000000000000000000002000000000000040000000000000000000000000000000000000000000000000000000000000000000002000000000000000000000000000000000000000000000000000020000000000000000000000000000000000000000000000000000000000000000000",
      "type": "0x2",
      "transactionHash": "0x764428b725c33795b247745fd208a40ee160b13743a079d353afb7d6472560ff",
      "transactionIndex": "0x3",
      "blockHash": "0xa6a26de5202b4464047308226a7ef5f386b3ed6bdaefb054e5c689aabd707137",
      "blockNumber": "0xf8f751",
      "gasUsed": "0x10b28",
      "effectiveGasPrice": "0x551",
      "from": "0x39dc391f8ffe71156212c7c3196ef09b9c0bddf8",
      "to": "0xf1e80cece49ee7f11469da001c98502e8bc38397",
      "contractAddress": null,
      "l1BaseFeeScalar": "0x7d0",
      "l1BlobBaseFee": "0x1",
      "l1BlobBaseFeeScalar": "0xdbba0",
      "l1Fee": "0x6c7c726",
      "l1GasPrice": "0x21e6e20",
      "l1GasUsed": "0x640"
    },
    {
      "status": "0x1",
      "cumulativeGasUsed": "0xc37c5",
      "logs": [
        {
          "address": "0xf1e80cece49ee7f11469da001c98502e8bc38397",
          "topics": [
            "0x8c5be1e5ebec7d5bd14f71427d1e84f3dd0314c0f7b2291e5b200ac8c7c3b925",
            "0x00000000000000000000000039dc391f8ffe71156212c7c3196ef09b9c0bddf8",
            "0x00000000000000000000000077f3f0f59342e6d2e7510cf853eea7ee6143ca80"
          ],
          "data": "0xffffffffffffffffffffffffffffffffffffffffffffffffffffffffffffffff",
          "blockHash": "0xa6a26de5202b4464047308226a7ef5f386b3ed6bdaefb054e5c689aabd707137",
          "blockNumber": "0xf8f751",
          "transactionHash": "0x3799e832045b4da5631df74f2789683cc3d0e8808527fa384196fddc05d0eac1",
          "transactionIndex": "0x4",
          "logIndex": "0x3",
          "removed": false
        }
      ],
      "logsBloom": "0x00000000000000000000000000000000000000000000000000000002000000000000000000000040000000000000000000000000000000000000000100200000000000000000000000000000000000020000000000000000000000000000000000000000000000000000000000000000000000000000000000000000080000000000000000000000000000000000000000000400000000000002000000000000060000000000000000000000000000000000000000000000000000000000000000000000000000000000000000000000000000000000000000000000000000000010000000000000000800000000000000000000000000000000000000000000",
      "type": "0x2",
      "transactionHash": "0x3799e832045b4da5631df74f2789683cc3d0e8808527fa384196fddc05d0eac1",
      "transactionIndex": "0x4",
      "blockHash": "0xa6a26de5202b4464047308226a7ef5f386b3ed6bdaefb054e5c689aabd707137",
      "blockNumber": "0xf8f751",
      "gasUsed": "0xb657",
      "effectiveGasPrice": "0x551",
      "from": "0x39dc391f8ffe71156212c7c3196ef09b9c0bddf8",
      "to": "0xf1e80cece49ee7f11469da001c98502e8bc38397",
      "contractAddress": null,
      "l1BaseFeeScalar": "0x7d0",
      "l1BlobBaseFee": "0x1",
      "l1BlobBaseFeeScalar": "0xdbba0",
      "l1Fee": "0x6c7c726",
      "l1GasPrice": "0x21e6e20",
      "l1GasUsed": "0x640"
    },
    {
      "status": "0x1",
      "cumulativeGasUsed": "0x28b329",
      "logs": [
        {
          "address": "0xc09d1f88f792719e9c0cf97a89874acd9970ba8c",
          "topics": [
            "0x8be0079c531659141344cd1fd0a4f28419497f9722a3daafe3b4186f6b6457e0",
            "0x0000000000000000000000000000000000000000000000000000000000000000",
            "0x00000000000000000000000077f3f0f59342e6d2e7510cf853eea7ee6143ca80"
          ],
          "data": "0x",
          "blockHash": "0xa6a26de5202b4464047308226a7ef5f386b3ed6bdaefb054e5c689aabd707137",
          "blockNumber": "0xf8f751",
          "transactionHash": "0x572c2d7794ab13eb26a053aa7f067aefc82779b44cd15e9bc8d968bba503e13c",
          "transactionIndex": "0x5",
          "logIndex": "0x4",
          "removed": false
        },
        {
          "address": "0x08e71b7d99762451082d008641ae28bcf4470f9f",
          "topics": [
            "0x8be0079c531659141344cd1fd0a4f28419497f9722a3daafe3b4186f6b6457e0",
            "0x0000000000000000000000000000000000000000000000000000000000000000",
            "0x00000000000000000000000077f3f0f59342e6d2e7510cf853eea7ee6143ca80"
          ],
          "data": "0x",
          "blockHash": "0xa6a26de5202b4464047308226a7ef5f386b3ed6bdaefb054e5c689aabd707137",
          "blockNumber": "0xf8f751",
          "transactionHash": "0x572c2d7794ab13eb26a053aa7f067aefc82779b44cd15e9bc8d968bba503e13c",
          "transactionIndex": "0x5",
          "logIndex": "0x5",
          "removed": false
        },
        {
          "address": "0xc09d1f88f792719e9c0cf97a89874acd9970ba8c",
          "topics": [
            "0xddf252ad1be2c89b69c2b068fc378daa952ba7f163c4a11628f55a4df523b3ef",
            "0x0000000000000000000000000000000000000000000000000000000000000000",
            "0x00000000000000000000000039dc391f8ffe71156212c7c3196ef09b9c0bddf8"
          ],
          "data": "0x0000000000000000000000000000000000000000000000000000000005f5e100",
          "blockHash": "0xa6a26de5202b4464047308226a7ef5f386b3ed6bdaefb054e5c689aabd707137",
          "blockNumber": "0xf8f751",
          "transactionHash": "0x572c2d7794ab13eb26a053aa7f067aefc82779b44cd15e9bc8d968bba503e13c",
          "transactionIndex": "0x5",
          "logIndex": "0x6",
          "removed": false
        },
        {
          "address": "0x08e71b7d99762451082d008641ae28bcf4470f9f",
          "topics": [
            "0xddf252ad1be2c89b69c2b068fc378daa952ba7f163c4a11628f55a4df523b3ef",
            "0x0000000000000000000000000000000000000000000000000000000000000000",
            "0x00000000000000000000000039dc391f8ffe71156212c7c3196ef09b9c0bddf8"
          ],
          "data": "0x0000000000000000000000000000000000000000000000000000000005f5e100",
          "blockHash": "0xa6a26de5202b4464047308226a7ef5f386b3ed6bdaefb054e5c689aabd707137",
          "blockNumber": "0xf8f751",
          "transactionHash": "0x572c2d7794ab13eb26a053aa7f067aefc82779b44cd15e9bc8d968bba503e13c",
          "transactionIndex": "0x5",
          "logIndex": "0x7",
          "removed": false
        },
        {
          "address": "0xf1e80cece49ee7f11469da001c98502e8bc38397",
          "topics": [
            "0xddf252ad1be2c89b69c2b068fc378daa952ba7f163c4a11628f55a4df523b3ef",
            "0x00000000000000000000000039dc391f8ffe71156212c7c3196ef09b9c0bddf8",
            "0x00000000000000000000000077f3f0f59342e6d2e7510cf853eea7ee6143ca80"
          ],
          "data": "0x0000000000000000000000000000000000000000000000000000000005f5e100",
          "blockHash": "0xa6a26de5202b4464047308226a7ef5f386b3ed6bdaefb054e5c689aabd707137",
          "blockNumber": "0xf8f751",
          "transactionHash": "0x572c2d7794ab13eb26a053aa7f067aefc82779b44cd15e9bc8d968bba503e13c",
          "transactionIndex": "0x5",
          "logIndex": "0x8",
          "removed": false
        },
        {
          "address": "0x85c7826ce7aab917f78045d2c3398b2843fcb8b8",
          "topics": [
            "0xdd466e674ea557f56295e2d0218a125ea4b4f0f6f3307b95f85e6110838d6438",
            "0x80c2f96894e0eaf2f02865c54fcfc582444e9fd9ede40f6d4ad4c0a4c14ade6d",
            "0x000000000000000000000000c09d1f88f792719e9c0cf97a89874acd9970ba8c",
            "0x000000000000000000000000f1e80cece49ee7f11469da001c98502e8bc38397"
          ],
          "data": "0x0000000000000000000000000000000000000000000000000000000000002710000000000000000000000000000000000000000000000000000000000000006400000000000000000000000077f3f0f59342e6d2e7510cf853eea7ee6143ca8000000000000000000000000000000000000000010000000000000000000000000000000000000000000000000000000000000000000000000000000000000000",
          "blockHash": "0xa6a26de5202b4464047308226a7ef5f386b3ed6bdaefb054e5c689aabd707137",
          "blockNumber": "0xf8f751",
          "transactionHash": "0x572c2d7794ab13eb26a053aa7f067aefc82779b44cd15e9bc8d968bba503e13c",
          "transactionIndex": "0x5",
          "logIndex": "0x9",
          "removed": false
        },
        {
          "address": "0x85c7826ce7aab917f78045d2c3398b2843fcb8b8",
          "topics": [
            "0xdd466e674ea557f56295e2d0218a125ea4b4f0f6f3307b95f85e6110838d6438",
            "0x21cb8a26f34b55048e3b3213b110d8d0d701f4d696a5f6b78091fb69823def4f",
            "0x00000000000000000000000008e71b7d99762451082d008641ae28bcf4470f9f",
            "0x000000000000000000000000f1e80cece49ee7f11469da001c98502e8bc38397"
          ],
          "data": "0x0000000000000000000000000000000000000000000000000000000000002710000000000000000000000000000000000000000000000000000000000000006400000000000000000000000077f3f0f59342e6d2e7510cf853eea7ee6143ca8000000000000000000000000000000000000000010000000000000000000000000000000000000000000000000000000000000000000000000000000000000000",
          "blockHash": "0xa6a26de5202b4464047308226a7ef5f386b3ed6bdaefb054e5c689aabd707137",
          "blockNumber": "0xf8f751",
          "transactionHash": "0x572c2d7794ab13eb26a053aa7f067aefc82779b44cd15e9bc8d968bba503e13c",
          "transactionIndex": "0x5",
          "logIndex": "0xa",
          "removed": false
        }
      ],
      "logsBloom": "0x00000000000000000000000000000000000000000000000080800002000000000000000800100040000000000000000000000000000000000000100100100000000000000000000000000008000000020001000000000000040000000000000000000000020000000400000000000800000000000000000000003410080000400000000400000008000000000000000000010401804000000002000000200000040000000000000400001000001100000000000000000000000000800000000020008002000000000000000002000000000000000000000020000000000020000000000000000000100800000000000000000000000000000000000000000000",
      "type": "0x2",
      "transactionHash": "0x572c2d7794ab13eb26a053aa7f067aefc82779b44cd15e9bc8d968bba503e13c",
      "transactionIndex": "0x5",
      "blockHash": "0xa6a26de5202b4464047308226a7ef5f386b3ed6bdaefb054e5c689aabd707137",
      "blockNumber": "0xf8f751",
      "gasUsed": "0x1c7b64",
      "effectiveGasPrice": "0x551",
      "from": "0x39dc391f8ffe71156212c7c3196ef09b9c0bddf8",
      "to": "0x77f3f0f59342e6d2e7510cf853eea7ee6143ca80",
      "contractAddress": null,
      "l1BaseFeeScalar": "0x7d0",
      "l1BlobBaseFee": "0x1",
      "l1BlobBaseFeeScalar": "0xdbba0",
      "l1Fee": "0xd0cde0e",
      "l1GasPrice": "0x21e6e20",
      "l1GasUsed": "0xc07"
    },
    {
      "status": "0x1",
      "cumulativeGasUsed": "0x44a90d",
      "logs": [
        {
          "address": "0x621700bc53a18cb710d5341655d6ec6ff3f73b14",
          "topics": [
            "0x8be0079c531659141344cd1fd0a4f28419497f9722a3daafe3b4186f6b6457e0",
            "0x0000000000000000000000000000000000000000000000000000000000000000",
            "0x00000000000000000000000077f3f0f59342e6d2e7510cf853eea7ee6143ca80"
          ],
          "data": "0x",
          "blockHash": "0xa6a26de5202b4464047308226a7ef5f386b3ed6bdaefb054e5c689aabd707137",
          "blockNumber": "0xf8f751",
          "transactionHash": "0x45e93c7f793fa13e20208684e85e5236d1e4a2ce8175587fc0e801b75d02f198",
          "transactionIndex": "0x6",
          "logIndex": "0xb",
          "removed": false
        },
        {
          "address": "0xe0bfce014533efe099b669787373466fa6977698",
          "topics": [
            "0x8be0079c531659141344cd1fd0a4f28419497f9722a3daafe3b4186f6b6457e0",
            "0x0000000000000000000000000000000000000000000000000000000000000000",
            "0x00000000000000000000000077f3f0f59342e6d2e7510cf853eea7ee6143ca80"
          ],
          "data": "0x",
          "blockHash": "0xa6a26de5202b4464047308226a7ef5f386b3ed6bdaefb054e5c689aabd707137",
          "blockNumber": "0xf8f751",
          "transactionHash": "0x45e93c7f793fa13e20208684e85e5236d1e4a2ce8175587fc0e801b75d02f198",
          "transactionIndex": "0x6",
          "logIndex": "0xc",
          "removed": false
        },
        {
          "address": "0x621700bc53a18cb710d5341655d6ec6ff3f73b14",
          "topics": [
            "0xddf252ad1be2c89b69c2b068fc378daa952ba7f163c4a11628f55a4df523b3ef",
            "0x0000000000000000000000000000000000000000000000000000000000000000",
            "0x00000000000000000000000039dc391f8ffe71156212c7c3196ef09b9c0bddf8"
          ],
          "data": "0x0000000000000000000000000000000000000000000000000000000005f5e100",
          "blockHash": "0xa6a26de5202b4464047308226a7ef5f386b3ed6bdaefb054e5c689aabd707137",
          "blockNumber": "0xf8f751",
          "transactionHash": "0x45e93c7f793fa13e20208684e85e5236d1e4a2ce8175587fc0e801b75d02f198",
          "transactionIndex": "0x6",
          "logIndex": "0xd",
          "removed": false
        },
        {
          "address": "0xe0bfce014533efe099b669787373466fa6977698",
          "topics": [
            "0xddf252ad1be2c89b69c2b068fc378daa952ba7f163c4a11628f55a4df523b3ef",
            "0x0000000000000000000000000000000000000000000000000000000000000000",
            "0x00000000000000000000000039dc391f8ffe71156212c7c3196ef09b9c0bddf8"
          ],
          "data": "0x0000000000000000000000000000000000000000000000000000000005f5e100",
          "blockHash": "0xa6a26de5202b4464047308226a7ef5f386b3ed6bdaefb054e5c689aabd707137",
          "blockNumber": "0xf8f751",
          "transactionHash": "0x45e93c7f793fa13e20208684e85e5236d1e4a2ce8175587fc0e801b75d02f198",
          "transactionIndex": "0x6",
          "logIndex": "0xe",
          "removed": false
        },
        {
          "address": "0xf1e80cece49ee7f11469da001c98502e8bc38397",
          "topics": [
            "0xddf252ad1be2c89b69c2b068fc378daa952ba7f163c4a11628f55a4df523b3ef",
            "0x00000000000000000000000039dc391f8ffe71156212c7c3196ef09b9c0bddf8",
            "0x00000000000000000000000077f3f0f59342e6d2e7510cf853eea7ee6143ca80"
          ],
          "data": "0x0000000000000000000000000000000000000000000000000000000005f5e100",
          "blockHash": "0xa6a26de5202b4464047308226a7ef5f386b3ed6bdaefb054e5c689aabd707137",
          "blockNumber": "0xf8f751",
          "transactionHash": "0x45e93c7f793fa13e20208684e85e5236d1e4a2ce8175587fc0e801b75d02f198",
          "transactionIndex": "0x6",
          "logIndex": "0xf",
          "removed": false
        },
        {
          "address": "0x85c7826ce7aab917f78045d2c3398b2843fcb8b8",
          "topics": [
            "0xdd466e674ea557f56295e2d0218a125ea4b4f0f6f3307b95f85e6110838d6438",
            "0xb602700cd0d0b9cadc177d47f43fd4591ba1d0a95ab4a16e24dc72949b7f6bd2",
            "0x000000000000000000000000621700bc53a18cb710d5341655d6ec6ff3f73b14",
            "0x000000000000000000000000f1e80cece49ee7f11469da001c98502e8bc38397"
          ],
          "data": "0x0000000000000000000000000000000000000000000000000000000000002710000000000000000000000000000000000000000000000000000000000000006400000000000000000000000077f3f0f59342e6d2e7510cf853eea7ee6143ca8000000000000000000000000000000000000000010000000000000000000000000000000000000000000000000000000000000000000000000000000000000000",
          "blockHash": "0xa6a26de5202b4464047308226a7ef5f386b3ed6bdaefb054e5c689aabd707137",
          "blockNumber": "0xf8f751",
          "transactionHash": "0x45e93c7f793fa13e20208684e85e5236d1e4a2ce8175587fc0e801b75d02f198",
          "transactionIndex": "0x6",
          "logIndex": "0x10",
          "removed": false
        },
        {
          "address": "0x85c7826ce7aab917f78045d2c3398b2843fcb8b8",
          "topics": [
            "0xdd466e674ea557f56295e2d0218a125ea4b4f0f6f3307b95f85e6110838d6438",
            "0x1ef5088e179b530ed4b75e33db44efef65c67aef0bb9df6e6cefb7b0312038c9",
            "0x000000000000000000000000e0bfce014533efe099b669787373466fa6977698",
            "0x000000000000000000000000f1e80cece49ee7f11469da001c98502e8bc38397"
          ],
          "data": "0x0000000000000000000000000000000000000000000000000000000000002710000000000000000000000000000000000000000000000000000000000000006400000000000000000000000077f3f0f59342e6d2e7510cf853eea7ee6143ca8000000000000000000000000000000000000000010000000000000000000000000000000000000000000000000000000000000000000000000000000000000000",
          "blockHash": "0xa6a26de5202b4464047308226a7ef5f386b3ed6bdaefb054e5c689aabd707137",
          "blockNumber": "0xf8f751",
          "transactionHash": "0x45e93c7f793fa13e20208684e85e5236d1e4a2ce8175587fc0e801b75d02f198",
          "transactionIndex": "0x6",
          "logIndex": "0x11",
          "removed": false
        }
      ],
      "logsBloom": "0x00000000000000000080000000000000000000000000000000800002000000000004000000100040000000000000000000000000000000000000000100000000000000004000000000100008000000020001000000000100000000000000000000000000020000000400000200000800010040000000000040000010080000c00000000800000008000000000000000000000401004002000002000000240000040000000004000000400000000000000000000000000000000000900000000020008002000000000000000000000000800000000000000000000000000020000000000000000000008800000000000000000000000000000000000000000000",
      "type": "0x2",
      "transactionHash": "0x45e93c7f793fa13e20208684e85e5236d1e4a2ce8175587fc0e801b75d02f198",
      "transactionIndex": "0x6",
      "blockHash": "0xa6a26de5202b4464047308226a7ef5f386b3ed6bdaefb054e5c689aabd707137",
      "blockNumber": "0xf8f751",
      "gasUsed": "0x1bf5e4",
      "effectiveGasPrice": "0x551",
      "from": "0x39dc391f8ffe71156212c7c3196ef09b9c0bddf8",
      "to": "0x77f3f0f59342e6d2e7510cf853eea7ee6143ca80",
      "contractAddress": null,
      "l1BaseFeeScalar": "0x7d0",
      "l1BlobBaseFee": "0x1",
      "l1BlobBaseFeeScalar": "0xdbba0",
      "l1Fee": "0xd386d40",
      "l1GasPrice": "0x21e6e20",
      "l1GasUsed": "0xc2f"
    },
    {
      "status": "0x1",
      "cumulativeGasUsed": "0x455f7b",
      "logs": [
        {
          "address": "0xc09d1f88f792719e9c0cf97a89874acd9970ba8c",
          "topics": [
            "0x8c5be1e5ebec7d5bd14f71427d1e84f3dd0314c0f7b2291e5b200ac8c7c3b925",
            "0x00000000000000000000000039dc391f8ffe71156212c7c3196ef09b9c0bddf8",
            "0x000000000000000000000000bd3175cfee03ff0dbb8f2ac7bb7adcf86cb105bd"
          ],
          "data": "0xffffffffffffffffffffffffffffffffffffffffffffffffffffffffffffffff",
          "blockHash": "0xa6a26de5202b4464047308226a7ef5f386b3ed6bdaefb054e5c689aabd707137",
          "blockNumber": "0xf8f751",
          "transactionHash": "0x21938c78fd98bc699e2e8cda81b637edfcf342b5a5514a05961e6eebf17ec767",
          "transactionIndex": "0x7",
          "logIndex": "0x12",
          "removed": false
        }
      ],
      "logsBloom": "0x00000000010000000000800000000000000000000000000000000002000000000000000800000040000000000000000000000000000000000000000000200000000000000000000000000000000000000000000000000000000000040000000000000000000000000000000000000000000000000000000000002000000000000000000000000000000000000000000000000000000000000000000000000000060000000000000000000000000100000000000000000000000000000000000000000000000000000000000000000000000000000000000000000000000000000010000000000000000000000000000000000000000000000000000000000000",
      "type": "0x2",
      "transactionHash": "0x21938c78fd98bc699e2e8cda81b637edfcf342b5a5514a05961e6eebf17ec767",
      "transactionIndex": "0x7",
      "blockHash": "0xa6a26de5202b4464047308226a7ef5f386b3ed6bdaefb054e5c689aabd707137",
      "blockNumber": "0xf8f751",
      "gasUsed": "0xb66e",
      "effectiveGasPrice": "0x551",
      "from": "0x39dc391f8ffe71156212c7c3196ef09b9c0bddf8",
      "to": "0xc09d1f88f792719e9c0cf97a89874acd9970ba8c",
      "contractAddress": null,
      "l1BaseFeeScalar": "0x7d0",
      "l1BlobBaseFee": "0x1",
      "l1BlobBaseFeeScalar": "0xdbba0",
      "l1Fee": "0x6c7c726",
      "l1GasPrice": "0x21e6e20",
      "l1GasUsed": "0x640"
    },
    {
      "status": "0x1",
      "cumulativeGasUsed": "0x4615e9",
      "logs": [
        {
          "address": "0x08e71b7d99762451082d008641ae28bcf4470f9f",
          "topics": [
            "0x8c5be1e5ebec7d5bd14f71427d1e84f3dd0314c0f7b2291e5b200ac8c7c3b925",
            "0x00000000000000000000000039dc391f8ffe71156212c7c3196ef09b9c0bddf8",
            "0x000000000000000000000000bd3175cfee03ff0dbb8f2ac7bb7adcf86cb105bd"
          ],
          "data": "0xffffffffffffffffffffffffffffffffffffffffffffffffffffffffffffffff",
          "blockHash": "0xa6a26de5202b4464047308226a7ef5f386b3ed6bdaefb054e5c689aabd707137",
          "blockNumber": "0xf8f751",
          "transactionHash": "0xdf799160a99680a1e0c51d64542a0c2a2b181e84e7e3751134f73998914cd251",
          "transactionIndex": "0x8",
          "logIndex": "0x13",
          "removed": false
        }
      ],
      "logsBloom": "0x00000000010000000000800000000000000000000000000000000002000000000000000000000040000000000000000000000000000000000000000000200000000000000000000000000000000000000000000000000000040000040000000000000000000000000000000000000000000000000000000000000000000000000000000000000000000000000000000000000000000000000000000000000000060000000000000000000000001000000000000000000000000000000000000000000000000000000000000000000000000000000000000000000000000000000010000000000000100000000000000000000000000000000000000000000000",
      "type": "0x2",
      "transactionHash": "0xdf799160a99680a1e0c51d64542a0c2a2b181e84e7e3751134f73998914cd251",
      "transactionIndex": "0x8",
      "blockHash": "0xa6a26de5202b4464047308226a7ef5f386b3ed6bdaefb054e5c689aabd707137",
      "blockNumber": "0xf8f751",
      "gasUsed": "0xb66e",
      "effectiveGasPrice": "0x551",
      "from": "0x39dc391f8ffe71156212c7c3196ef09b9c0bddf8",
      "to": "0x08e71b7d99762451082d008641ae28bcf4470f9f",
      "contractAddress": null,
      "l1BaseFeeScalar": "0x7d0",
      "l1BlobBaseFee": "0x1",
      "l1BlobBaseFeeScalar": "0xdbba0",
      "l1Fee": "0x6c7c726",
      "l1GasPrice": "0x21e6e20",
      "l1GasUsed": "0x640"
    },
    {
      "status": "0x1",
      "cumulativeGasUsed": "0x46cc40",
      "logs": [
        {
          "address": "0xf1e80cece49ee7f11469da001c98502e8bc38397",
          "topics": [
            "0x8c5be1e5ebec7d5bd14f71427d1e84f3dd0314c0f7b2291e5b200ac8c7c3b925",
            "0x00000000000000000000000039dc391f8ffe71156212c7c3196ef09b9c0bddf8",
            "0x000000000000000000000000bd3175cfee03ff0dbb8f2ac7bb7adcf86cb105bd"
          ],
          "data": "0xffffffffffffffffffffffffffffffffffffffffffffffffffffffffffffffff",
          "blockHash": "0xa6a26de5202b4464047308226a7ef5f386b3ed6bdaefb054e5c689aabd707137",
          "blockNumber": "0xf8f751",
          "transactionHash": "0xafa695f263b30e0073108a33f79a81d1912b97eb22aad57232dc947887820340",
          "transactionIndex": "0x9",
          "logIndex": "0x14",
          "removed": false
        }
      ],
      "logsBloom": "0x00000000010000000000800000000000000000000000000000000002000000000000000000000040000000000000000000000000000000000000000100200000000000000000000000000000000000000000000000000000000000040000000000000000000000000000000000000000000000000000000000000000080000000000000000000000000000000000000000000000000000000002000000000000060000000000000000000000000000000000000000000000000000000000000000000000000000000000000000000000000000000000000000000000000000000010000000000000000000000000000000000000000000000000000000000000",
      "type": "0x2",
      "transactionHash": "0xafa695f263b30e0073108a33f79a81d1912b97eb22aad57232dc947887820340",
      "transactionIndex": "0x9",
      "blockHash": "0xa6a26de5202b4464047308226a7ef5f386b3ed6bdaefb054e5c689aabd707137",
      "blockNumber": "0xf8f751",
      "gasUsed": "0xb657",
      "effectiveGasPrice": "0x551",
      "from": "0x39dc391f8ffe71156212c7c3196ef09b9c0bddf8",
      "to": "0xf1e80cece49ee7f11469da001c98502e8bc38397",
      "contractAddress": null,
      "l1BaseFeeScalar": "0x7d0",
      "l1BlobBaseFee": "0x1",
      "l1BlobBaseFeeScalar": "0xdbba0",
      "l1Fee": "0x6c7c726",
      "l1GasPrice": "0x21e6e20",
      "l1GasUsed": "0x640"
    },
    {
      "status": "0x1",
      "cumulativeGasUsed": "0x4aeec5",
      "logs": [
        {
          "address": "0x85c7826ce7aab917f78045d2c3398b2843fcb8b8",
          "topics": [
            "0xf208f4912782fd25c7f114ca3723a2d5dd6f3bcc3ac8db5af63baa85f711d5ec",
            "0x80c2f96894e0eaf2f02865c54fcfc582444e9fd9ede40f6d4ad4c0a4c14ade6d",
            "0x000000000000000000000000bd3175cfee03ff0dbb8f2ac7bb7adcf86cb105bd"
          ],
          "data": "0xffffffffffffffffffffffffffffffffffffffffffffffffffffffffffffdc10ffffffffffffffffffffffffffffffffffffffffffffffffffffffffffffff9c000000000000000000000000000000000000000000000000000000000752c25e0000000000000000000000000000000000000000000000000000000000000000",
          "blockHash": "0xa6a26de5202b4464047308226a7ef5f386b3ed6bdaefb054e5c689aabd707137",
          "blockNumber": "0xf8f751",
          "transactionHash": "0x416898c983f44e5af6809d44ab56af6de4cb47d9d25a5a2e987a27e1a2962c11",
          "transactionIndex": "0xa",
          "logIndex": "0x15",
          "removed": false
        },
        {
          "address": "0xf1e80cece49ee7f11469da001c98502e8bc38397",
          "topics": [
            "0xddf252ad1be2c89b69c2b068fc378daa952ba7f163c4a11628f55a4df523b3ef",
            "0x00000000000000000000000039dc391f8ffe71156212c7c3196ef09b9c0bddf8",
            "0x00000000000000000000000085c7826ce7aab917f78045d2c3398b2843fcb8b8"
          ],
          "data": "0x0000000000000000000000000000000000000000000000000000000002a9e093",
          "blockHash": "0xa6a26de5202b4464047308226a7ef5f386b3ed6bdaefb054e5c689aabd707137",
          "blockNumber": "0xf8f751",
          "transactionHash": "0x416898c983f44e5af6809d44ab56af6de4cb47d9d25a5a2e987a27e1a2962c11",
          "transactionIndex": "0xa",
          "logIndex": "0x16",
          "removed": false
        }
      ],
      "logsBloom": "0x00000000010000000000800000000000000000000000000000000002000000000000000000100040000000000000000000000000000000000000000100000000000000000000000000000008000000000000000000000000000000040000000000000000000000000400000000000000000000000000000000000410080000000020000001000000000000000000000000010000002000000002000000000000040004000000000000001000000000000000000000000000000000800000000000008002000000000000000000000000000000000000000000000000000000000000000000000000000000000000000004000000000000000000000000000000",
      "type": "0x2",
      "transactionHash": "0x416898c983f44e5af6809d44ab56af6de4cb47d9d25a5a2e987a27e1a2962c11",
      "transactionIndex": "0xa",
      "blockHash": "0xa6a26de5202b4464047308226a7ef5f386b3ed6bdaefb054e5c689aabd707137",
      "blockNumber": "0xf8f751",
      "gasUsed": "0x42285",
      "effectiveGasPrice": "0x551",
      "from": "0x39dc391f8ffe71156212c7c3196ef09b9c0bddf8",
      "to": "0xbd3175cfee03ff0dbb8f2ac7bb7adcf86cb105bd",
      "contractAddress": null,
      "l1BaseFeeScalar": "0x7d0",
      "l1BlobBaseFee": "0x1",
      "l1BlobBaseFeeScalar": "0xdbba0",
      "l1Fee": "0xb2db6ef",
      "l1GasPrice": "0x21e6e20",
      "l1GasUsed": "0xa4d"
    },
    {
      "status": "0x1",
      "cumulativeGasUsed": "0x4ece72",
      "logs": [
        {
          "address": "0x85c7826ce7aab917f78045d2c3398b2843fcb8b8",
          "topics": [
            "0xf208f4912782fd25c7f114ca3723a2d5dd6f3bcc3ac8db5af63baa85f711d5ec",
            "0x21cb8a26f34b55048e3b3213b110d8d0d701f4d696a5f6b78091fb69823def4f",
            "0x000000000000000000000000bd3175cfee03ff0dbb8f2ac7bb7adcf86cb105bd"
          ],
          "data": "0xffffffffffffffffffffffffffffffffffffffffffffffffffffffffffffdc10ffffffffffffffffffffffffffffffffffffffffffffffffffffffffffffff9c000000000000000000000000000000000000000000000000000000000752c25e0000000000000000000000000000000000000000000000000000000000000000",
          "blockHash": "0xa6a26de5202b4464047308226a7ef5f386b3ed6bdaefb054e5c689aabd707137",
          "blockNumber": "0xf8f751",
          "transactionHash": "0x953c0ff25374d4a6cd177abdd716aa6972df9d5a3709acf1ff0ac215a5bef206",
          "transactionIndex": "0xb",
          "logIndex": "0x17",
          "removed": false
        },
        {
          "address": "0xf1e80cece49ee7f11469da001c98502e8bc38397",
          "topics": [
            "0xddf252ad1be2c89b69c2b068fc378daa952ba7f163c4a11628f55a4df523b3ef",
            "0x00000000000000000000000039dc391f8ffe71156212c7c3196ef09b9c0bddf8",
            "0x00000000000000000000000085c7826ce7aab917f78045d2c3398b2843fcb8b8"
          ],
          "data": "0x0000000000000000000000000000000000000000000000000000000002a9e093",
          "blockHash": "0xa6a26de5202b4464047308226a7ef5f386b3ed6bdaefb054e5c689aabd707137",
          "blockNumber": "0xf8f751",
          "transactionHash": "0x953c0ff25374d4a6cd177abdd716aa6972df9d5a3709acf1ff0ac215a5bef206",
          "transactionIndex": "0xb",
          "logIndex": "0x18",
          "removed": false
        }
      ],
      "logsBloom": "0x00000000010000000000800000000000000000000000000080000002000000000000000000100040000000000000000000000000000000000000000100100000000000000000000000000008000000000000000000000000000000040000000000000000000000000400000000000000000000000000000000000010080000000020000001000000000000000000000000000000002000000002000000000000040004000000000000000000000000000000000000000000000000800000000000008002000000000000000002000000000000000000000000000000000000000000000000000000000000000000000004000000000000000000000000000000",
      "type": "0x2",
      "transactionHash": "0x953c0ff25374d4a6cd177abdd716aa6972df9d5a3709acf1ff0ac215a5bef206",
      "transactionIndex": "0xb",
      "blockHash": "0xa6a26de5202b4464047308226a7ef5f386b3ed6bdaefb054e5c689aabd707137",
      "blockNumber": "0xf8f751",
      "gasUsed": "0x3dfad",
      "effectiveGasPrice": "0x551",
      "from": "0x39dc391f8ffe71156212c7c3196ef09b9c0bddf8",
      "to": "0xbd3175cfee03ff0dbb8f2ac7bb7adcf86cb105bd",
      "contractAddress": null,
      "l1BaseFeeScalar": "0x7d0",
      "l1BlobBaseFee": "0x1",
      "l1BlobBaseFeeScalar": "0xdbba0",
      "l1Fee": "0xb2db6ef",
      "l1GasPrice": "0x21e6e20",
      "l1GasUsed": "0xa4d"
    },
    {
      "status": "0x1",
      "cumulativeGasUsed": "0x4f84e0",
      "logs": [
        {
          "address": "0x621700bc53a18cb710d5341655d6ec6ff3f73b14",
          "topics": [
            "0x8c5be1e5ebec7d5bd14f71427d1e84f3dd0314c0f7b2291e5b200ac8c7c3b925",
            "0x00000000000000000000000039dc391f8ffe71156212c7c3196ef09b9c0bddf8",
            "0x000000000000000000000000bd3175cfee03ff0dbb8f2ac7bb7adcf86cb105bd"
          ],
          "data": "0xffffffffffffffffffffffffffffffffffffffffffffffffffffffffffffffff",
          "blockHash": "0xa6a26de5202b4464047308226a7ef5f386b3ed6bdaefb054e5c689aabd707137",
          "blockNumber": "0xf8f751",
          "transactionHash": "0x4914576bf3cfa418b4a10fd0dca41f0ab6a08444018dadb1ac765c3ca0c2c3d3",
          "transactionIndex": "0xc",
          "logIndex": "0x19",
          "removed": false
        }
      ],
      "logsBloom": "0x00000000010000000080800000000000000000000000000000000002000000000000000000000040000000000000000000000000000000000000000000200000000000000000000000100000000000000000000000000100000000040000000000000000000000000000000000000000000000000000000000000000000000000000000000000000000000000000000000000000000000000000000000000000060000000000000000000000000000000000000000000000000000000000000000000000000000000000000000000000000000000000000000000000000000000010000000000000000000000000000000000000000000000000000000000000",
      "type": "0x2",
      "transactionHash": "0x4914576bf3cfa418b4a10fd0dca41f0ab6a08444018dadb1ac765c3ca0c2c3d3",
      "transactionIndex": "0xc",
      "blockHash": "0xa6a26de5202b4464047308226a7ef5f386b3ed6bdaefb054e5c689aabd707137",
      "blockNumber": "0xf8f751",
      "gasUsed": "0xb66e",
      "effectiveGasPrice": "0x551",
      "from": "0x39dc391f8ffe71156212c7c3196ef09b9c0bddf8",
      "to": "0x621700bc53a18cb710d5341655d6ec6ff3f73b14",
      "contractAddress": null,
      "l1BaseFeeScalar": "0x7d0",
      "l1BlobBaseFee": "0x1",
      "l1BlobBaseFeeScalar": "0xdbba0",
      "l1Fee": "0x6c7c726",
      "l1GasPrice": "0x21e6e20",
      "l1GasUsed": "0x640"
    },
    {
      "status": "0x1",
      "cumulativeGasUsed": "0x503b4e",
      "logs": [
        {
          "address": "0xe0bfce014533efe099b669787373466fa6977698",
          "topics": [
            "0x8c5be1e5ebec7d5bd14f71427d1e84f3dd0314c0f7b2291e5b200ac8c7c3b925",
            "0x00000000000000000000000039dc391f8ffe71156212c7c3196ef09b9c0bddf8",
            "0x000000000000000000000000bd3175cfee03ff0dbb8f2ac7bb7adcf86cb105bd"
          ],
          "data": "0xffffffffffffffffffffffffffffffffffffffffffffffffffffffffffffffff",
          "blockHash": "0xa6a26de5202b4464047308226a7ef5f386b3ed6bdaefb054e5c689aabd707137",
          "blockNumber": "0xf8f751",
          "transactionHash": "0x3eb5c8159c2f6aeed72126311857471d03f9078d8362373824b584ba1a45b440",
          "transactionIndex": "0xd",
          "logIndex": "0x1a",
          "removed": false
        }
      ],
      "logsBloom": "0x00000000010000000000800000000000000000000000000000000002000000000000000000000040000000000000000000000000000000000000000000200000000000004000000000000000000000000000000000000000000000040000000000000000000000000000000000000000000000000000000040000000000000000000000000000000000000000000000000000000000000000000000000000000060000000004000000000000000000000000000000000000000000000000000000000000000000000000000000000000000000000000000000000000000000000010000000000000000000000000000000000000000000000000000000000000",
      "type": "0x2",
      "transactionHash": "0x3eb5c8159c2f6aeed72126311857471d03f9078d8362373824b584ba1a45b440",
      "transactionIndex": "0xd",
      "blockHash": "0xa6a26de5202b4464047308226a7ef5f386b3ed6bdaefb054e5c689aabd707137",
      "blockNumber": "0xf8f751",
      "gasUsed": "0xb66e",
      "effectiveGasPrice": "0x551",
      "from": "0x39dc391f8ffe71156212c7c3196ef09b9c0bddf8",
      "to": "0xe0bfce014533efe099b669787373466fa6977698",
      "contractAddress": null,
      "l1BaseFeeScalar": "0x7d0",
      "l1BlobBaseFee": "0x1",
      "l1BlobBaseFeeScalar": "0xdbba0",
      "l1Fee": "0x6c7c726",
      "l1GasPrice": "0x21e6e20",
      "l1GasUsed": "0x640"
    },
    {
      "status": "0x1",
      "cumulativeGasUsed": "0x50a3e9",
      "logs": [
        {
          "address": "0xf1e80cece49ee7f11469da001c98502e8bc38397",
          "topics": [
            "0x8c5be1e5ebec7d5bd14f71427d1e84f3dd0314c0f7b2291e5b200ac8c7c3b925",
            "0x00000000000000000000000039dc391f8ffe71156212c7c3196ef09b9c0bddf8",
            "0x000000000000000000000000bd3175cfee03ff0dbb8f2ac7bb7adcf86cb105bd"
          ],
          "data": "0xffffffffffffffffffffffffffffffffffffffffffffffffffffffffffffffff",
          "blockHash": "0xa6a26de5202b4464047308226a7ef5f386b3ed6bdaefb054e5c689aabd707137",
          "blockNumber": "0xf8f751",
          "transactionHash": "0x8c18d59952b9204e161014f73adfb7b8e7df57f273f4d51cd36918afd0fe0f1d",
          "transactionIndex": "0xe",
          "logIndex": "0x1b",
          "removed": false
        }
      ],
      "logsBloom": "0x00000000010000000000800000000000000000000000000000000002000000000000000000000040000000000000000000000000000000000000000100200000000000000000000000000000000000000000000000000000000000040000000000000000000000000000000000000000000000000000000000000000080000000000000000000000000000000000000000000000000000000002000000000000060000000000000000000000000000000000000000000000000000000000000000000000000000000000000000000000000000000000000000000000000000000010000000000000000000000000000000000000000000000000000000000000",
      "type": "0x2",
      "transactionHash": "0x8c18d59952b9204e161014f73adfb7b8e7df57f273f4d51cd36918afd0fe0f1d",
      "transactionIndex": "0xe",
      "blockHash": "0xa6a26de5202b4464047308226a7ef5f386b3ed6bdaefb054e5c689aabd707137",
      "blockNumber": "0xf8f751",
      "gasUsed": "0x689b",
      "effectiveGasPrice": "0x551",
      "from": "0x39dc391f8ffe71156212c7c3196ef09b9c0bddf8",
      "to": "0xf1e80cece49ee7f11469da001c98502e8bc38397",
      "contractAddress": null,
      "l1BaseFeeScalar": "0x7d0",
      "l1BlobBaseFee": "0x1",
      "l1BlobBaseFeeScalar": "0xdbba0",
      "l1Fee": "0x6c7c726",
      "l1GasPrice": "0x21e6e20",
      "l1GasUsed": "0x640"
    },
    {
      "status": "0x1",
      "cumulativeGasUsed": "0x548396",
      "logs": [
        {
          "address": "0x85c7826ce7aab917f78045d2c3398b2843fcb8b8",
          "topics": [
            "0xf208f4912782fd25c7f114ca3723a2d5dd6f3bcc3ac8db5af63baa85f711d5ec",
            "0xb602700cd0d0b9cadc177d47f43fd4591ba1d0a95ab4a16e24dc72949b7f6bd2",
            "0x000000000000000000000000bd3175cfee03ff0dbb8f2ac7bb7adcf86cb105bd"
          ],
          "data": "0xffffffffffffffffffffffffffffffffffffffffffffffffffffffffffffdc10ffffffffffffffffffffffffffffffffffffffffffffffffffffffffffffff9c000000000000000000000000000000000000000000000000000000000752c25e0000000000000000000000000000000000000000000000000000000000000000",
          "blockHash": "0xa6a26de5202b4464047308226a7ef5f386b3ed6bdaefb054e5c689aabd707137",
          "blockNumber": "0xf8f751",
          "transactionHash": "0x59a52dd473f5f28b429ed94c74230ade9ca268361ff4d83b95d672da4c517220",
          "transactionIndex": "0xf",
          "logIndex": "0x1c",
          "removed": false
        },
        {
          "address": "0xf1e80cece49ee7f11469da001c98502e8bc38397",
          "topics": [
            "0xddf252ad1be2c89b69c2b068fc378daa952ba7f163c4a11628f55a4df523b3ef",
            "0x00000000000000000000000039dc391f8ffe71156212c7c3196ef09b9c0bddf8",
            "0x00000000000000000000000085c7826ce7aab917f78045d2c3398b2843fcb8b8"
          ],
          "data": "0x0000000000000000000000000000000000000000000000000000000002a9e093",
          "blockHash": "0xa6a26de5202b4464047308226a7ef5f386b3ed6bdaefb054e5c689aabd707137",
          "blockNumber": "0xf8f751",
          "transactionHash": "0x59a52dd473f5f28b429ed94c74230ade9ca268361ff4d83b95d672da4c517220",
          "transactionIndex": "0xf",
          "logIndex": "0x1d",
          "removed": false
        }
      ],
      "logsBloom": "0x00000000010000000000800000000000000000000000000000000002000000000000000000100040000000000000000000000000000000000000000100000000000000000000000000000008000000000000000000000000000000040000000000000000000000000400000000000000000000000000000000000010080000000020000001000000000000000000000000000000002002000002000000040000040004000000000000000000000000000000000000000000000000900000000000008002000000000000000000000000000000000000000000000000000000000000000000000000000000000000000004000000000000000000000000000000",
      "type": "0x2",
      "transactionHash": "0x59a52dd473f5f28b429ed94c74230ade9ca268361ff4d83b95d672da4c517220",
      "transactionIndex": "0xf",
      "blockHash": "0xa6a26de5202b4464047308226a7ef5f386b3ed6bdaefb054e5c689aabd707137",
      "blockNumber": "0xf8f751",
      "gasUsed": "0x3dfad",
      "effectiveGasPrice": "0x551",
      "from": "0x39dc391f8ffe71156212c7c3196ef09b9c0bddf8",
      "to": "0xbd3175cfee03ff0dbb8f2ac7bb7adcf86cb105bd",
      "contractAddress": null,
      "l1BaseFeeScalar": "0x7d0",
      "l1BlobBaseFee": "0x1",
      "l1BlobBaseFeeScalar": "0xdbba0",
      "l1Fee": "0xb2db6ef",
      "l1GasPrice": "0x21e6e20",
      "l1GasUsed": "0xa4d"
    },
    {
      "status": "0x1",
      "cumulativeGasUsed": "0x58634f",
      "logs": [
        {
          "address": "0x85c7826ce7aab917f78045d2c3398b2843fcb8b8",
          "topics": [
            "0xf208f4912782fd25c7f114ca3723a2d5dd6f3bcc3ac8db5af63baa85f711d5ec",
            "0x1ef5088e179b530ed4b75e33db44efef65c67aef0bb9df6e6cefb7b0312038c9",
            "0x000000000000000000000000bd3175cfee03ff0dbb8f2ac7bb7adcf86cb105bd"
          ],
          "data": "0xffffffffffffffffffffffffffffffffffffffffffffffffffffffffffffdc10ffffffffffffffffffffffffffffffffffffffffffffffffffffffffffffff9c000000000000000000000000000000000000000000000000000000000752c25e0000000000000000000000000000000000000000000000000000000000000000",
          "blockHash": "0xa6a26de5202b4464047308226a7ef5f386b3ed6bdaefb054e5c689aabd707137",
          "blockNumber": "0xf8f751",
          "transactionHash": "0xa368ee43d5f8b3aadccefbed9f6ceaf65af248b74e4f001399feb500149cd3af",
          "transactionIndex": "0x10",
          "logIndex": "0x1e",
          "removed": false
        },
        {
          "address": "0xf1e80cece49ee7f11469da001c98502e8bc38397",
          "topics": [
            "0xddf252ad1be2c89b69c2b068fc378daa952ba7f163c4a11628f55a4df523b3ef",
            "0x00000000000000000000000039dc391f8ffe71156212c7c3196ef09b9c0bddf8",
            "0x00000000000000000000000085c7826ce7aab917f78045d2c3398b2843fcb8b8"
          ],
          "data": "0x0000000000000000000000000000000000000000000000000000000002a9e093",
          "blockHash": "0xa6a26de5202b4464047308226a7ef5f386b3ed6bdaefb054e5c689aabd707137",
          "blockNumber": "0xf8f751",
          "transactionHash": "0xa368ee43d5f8b3aadccefbed9f6ceaf65af248b74e4f001399feb500149cd3af",
          "transactionIndex": "0x10",
          "logIndex": "0x1f",
          "removed": false
        }
      ],
      "logsBloom": "0x00000000010000000000800000000000000000000000000000000002000000000004000000100040000000000000000000000000000000000000000100000000000000000000000000000008000000000000000000000000000000040000000000000000000000000400000000000000000040000000000000000010080000000020000001000000000000000000000000000000002000000002000000000000040004000000000000400000000000000000000000000000000000800000000000008002000000000000000000000000000000000000000000000000000000000000000000000000000000000000000004000000000000000000000000000000",
      "type": "0x2",
      "transactionHash": "0xa368ee43d5f8b3aadccefbed9f6ceaf65af248b74e4f001399feb500149cd3af",
      "transactionIndex": "0x10",
      "blockHash": "0xa6a26de5202b4464047308226a7ef5f386b3ed6bdaefb054e5c689aabd707137",
      "blockNumber": "0xf8f751",
      "gasUsed": "0x3dfb9",
      "effectiveGasPrice": "0x551",
      "from": "0x39dc391f8ffe71156212c7c3196ef09b9c0bddf8",
      "to": "0xbd3175cfee03ff0dbb8f2ac7bb7adcf86cb105bd",
      "contractAddress": null,
      "l1BaseFeeScalar": "0x7d0",
      "l1BlobBaseFee": "0x1",
      "l1BlobBaseFeeScalar": "0xdbba0",
      "l1Fee": "0xb2db6ef",
      "l1GasPrice": "0x21e6e20",
      "l1GasUsed": "0xa4d"
    }
  ],
  "libraries": [],
  "pending": [],
  "returns": {},
  "timestamp": 1743168670,
  "chain": 1301,
  "commit": "a7094a8"
}