{
  "transactions": [
    {
      "hash": "0x2929ebb03ab13b8fd47be672dba0a4fa44fb3e323f644f66ae707fbfc047fd4a",
      "transactionType": "CREATE",
      "contractName": "ERC20Mock",
      "contractAddress": "0x77a4d2324d8330a04a0187a36d35fa4b542d17eb",
      "function": null,
      "arguments": [
        "Test USDC",
        "USDC",
        "6"
      ],
      "transaction": {
        "from": "0x39dc391f8ffe71156212c7c3196ef09b9c0bddf8",
        "gas": "0xad293",
        "value": "0x0",
        "input": "0x608060405234801561000f575f80fd5b50604051610a40380380610a4083398101604081905261002e91610106565b8282600361003c8382610207565b5060046100498282610207565b50506005805460ff191660ff9390931692909217909155506102c1915050565b634e487b7160e01b5f52604160045260245ffd5b5f82601f83011261008c575f80fd5b81516001600160401b038111156100a5576100a5610069565b604051601f8201601f19908116603f011681016001600160401b03811182821017156100d3576100d3610069565b6040528181528382016020018510156100ea575f80fd5b8160208501602083015e5f918101602001919091529392505050565b5f805f60608486031215610118575f80fd5b83516001600160401b0381111561012d575f80fd5b6101398682870161007d565b602086015190945090506001600160401b03811115610156575f80fd5b6101628682870161007d565b925050604084015160ff81168114610178575f80fd5b809150509250925092565b600181811c9082168061019757607f821691505b6020821081036101b557634e487b7160e01b5f52602260045260245ffd5b50919050565b601f82111561020257805f5260205f20601f840160051c810160208510156101e05750805b601f840160051c820191505b818110156101ff575f81556001016101ec565b50505b505050565b81516001600160401b0381111561022057610220610069565b6102348161022e8454610183565b846101bb565b6020601f821160018114610266575f831561024f5750848201515b5f19600385901b1c1916600184901b1784556101ff565b5f84815260208120601f198516915b828110156102955787850151825560209485019460019092019101610275565b50848210156102b257868401515f19600387901b60f8161c191681555b50505050600190811b01905550565b610772806102ce5f395ff3fe608060405234801561000f575f80fd5b50600436106100a6575f3560e01c806340c10f191161006e57806340c10f191461012557806370a082311461013a57806395d89b41146101625780639dc29fac1461016a578063a9059cbb1461017d578063dd62ed3e14610190575f80fd5b806306fdde03146100aa578063095ea7b3146100c857806318160ddd146100eb57806323b872dd146100fd578063313ce56714610110575b5f80fd5b6100b26101c8565b6040516100bf9190610618565b60405180910390f35b6100db6100d6366004610668565b610258565b60405190151581526020016100bf565b6002545b6040519081526020016100bf565b6100db61010b366004610690565b610271565b60055460405160ff90911681526020016100bf565b610138610133366004610668565b610294565b005b6100ef6101483660046106ca565b6001600160a01b03165f9081526020819052604090205490565b6100b26102a2565b610138610178366004610668565b6102b1565b6100db61018b366004610668565b6102bb565b6100ef61019e3660046106ea565b6001600160a01b039182165f90815260016020908152604080832093909416825291909152205490565b6060600380546101d79061071b565b80601f01602080910402602001604051908101604052809291908181526020018280546102039061071b565b801561024e5780601f106102255761010080835404028352916020019161024e565b820191905f5260205f20905b81548152906001019060200180831161023157829003601f168201915b5050505050905090565b5f336102658185856102c8565b60019150505b92915050565b5f3361027e8582856102da565b61028985858561035b565b506001949350505050565b61029e82826103b8565b5050565b6060600480546101d79061071b565b61029e82826103ec565b5f3361026581858561035b565b6102d58383836001610420565b505050565b6001600160a01b038381165f908152600160209081526040808320938616835292905220545f19811015610355578181101561034757604051637dc7a0d960e11b81526001600160a01b038416600482015260248101829052604481018390526064015b60405180910390fd5b61035584848484035f610420565b50505050565b6001600160a01b03831661038457604051634b637e8f60e11b81525f600482015260240161033e565b6001600160a01b0382166103ad5760405163ec442f0560e01b81525f600482015260240161033e565b6102d58383836104f2565b6001600160a01b0382166103e15760405163ec442f0560e01b81525f600482015260240161033e565b61029e5f83836104f2565b6001600160a01b03821661041557604051634b637e8f60e11b81525f600482015260240161033e565b61029e825f836104f2565b6001600160a01b0384166104495760405163e602df0560e01b81525f600482015260240161033e565b6001600160a01b03831661047257604051634a1406b160e11b81525f600482015260240161033e565b6001600160a01b038085165f908152600160209081526040808320938716835292905220829055801561035557826001600160a01b0316846001600160a01b03167f8c5be1e5ebec7d5bd14f71427d1e84f3dd0314c0f7b2291e5b200ac8c7c3b925846040516104e491815260200190565b60405180910390a350505050565b6001600160a01b03831661051c578060025f8282546105119190610753565b9091555061058c9050565b6001600160a01b0383165f908152602081905260409020548181101561056e5760405163391434e360e21b81526001600160a01b0385166004820152602481018290526044810183905260640161033e565b6001600160a01b0384165f9081526020819052604090209082900390555b6001600160a01b0382166105a8576002805482900390556105c6565b6001600160a01b0382165f9081526020819052604090208054820190555b816001600160a01b0316836001600160a01b03167fddf252ad1be2c89b69c2b068fc378daa952ba7f163c4a11628f55a4df523b3ef8360405161060b91815260200190565b60405180910390a3505050565b602081525f82518060208401528060208501604085015e5f604082850101526040601f19601f83011684010191505092915050565b80356001600160a01b0381168114610663575f80fd5b919050565b5f8060408385031215610679575f80fd5b6106828361064d565b946020939093013593505050565b5f805f606084860312156106a2575f80fd5b6106ab8461064d565b92506106b96020850161064d565b929592945050506040919091013590565b5f602082840312156106da575f80fd5b6106e38261064d565b9392505050565b5f80604083850312156106fb575f80fd5b6107048361064d565b91506107126020840161064d565b90509250929050565b600181811c9082168061072f57607f821691505b60208210810361074d57634e487b7160e01b5f52602260045260245ffd5b50919050565b8082018082111561026b57634e487b7160e01b5f52601160045260245ffd000000000000000000000000000000000000000000000000000000000000006000000000000000000000000000000000000000000000000000000000000000a000000000000000000000000000000000000000000000000000000000000000060000000000000000000000000000000000000000000000000000000000000009546573742055534443000000000000000000000000000000000000000000000000000000000000000000000000000000000000000000000000000000000000045553444300000000000000000000000000000000000000000000000000000000",
        "nonce": "0x156",
        "chainId": "0x515"
      },
      "additionalContracts": [],
      "isFixedGasLimit": false
    },
    {
      "hash": "0x5fb7453f00d4e3777569032adfb4438439881769bc629d0957fa6c512516ea81",
      "transactionType": "CALL",
      "contractName": "ERC20Mock",
      "contractAddress": "0x77a4d2324d8330a04a0187a36d35fa4b542d17eb",
      "function": "mint(address,uint256)",
      "arguments": [
        "0x39dc391f8FFE71156212C7c3196Ef09B9C0bdDf8",
        "1000000000000"
      ],
      "transaction": {
        "from": "0x39dc391f8ffe71156212c7c3196ef09b9c0bddf8",
        "to": "0x77a4d2324d8330a04a0187a36d35fa4b542d17eb",
        "gas": "0x17101",
        "value": "0x0",
        "input": "0x40c10f1900000000000000000000000039dc391f8ffe71156212c7c3196ef09b9c0bddf8000000000000000000000000000000000000000000000000000000e8d4a51000",
        "nonce": "0x157",
        "chainId": "0x515"
      },
      "additionalContracts": [],
      "isFixedGasLimit": false
    },
    {
      "hash": "0x885cbd00745f007005c1f45812fcc0948a6a27c6d68b9969e5440020061a8d8e",
      "transactionType": "CALL",
      "contractName": "ERC20Mock",
      "contractAddress": "0x77a4d2324d8330a04a0187a36d35fa4b542d17eb",
      "function": "approve(address,uint256)",
      "arguments": [
        "0x9AF8a8F46fA1BD20d13a38a415Bd34B16c2e0A80",
        "115792089237316195423570985008687907853269984665640564039457584007913129639935"
      ],
      "transaction": {
        "from": "0x39dc391f8ffe71156212c7c3196ef09b9c0bddf8",
        "to": "0x77a4d2324d8330a04a0187a36d35fa4b542d17eb",
        "gas": "0xfbda",
        "value": "0x0",
        "input": "0x095ea7b30000000000000000000000009af8a8f46fa1bd20d13a38a415bd34b16c2e0a80ffffffffffffffffffffffffffffffffffffffffffffffffffffffffffffffff",
        "nonce": "0x158",
        "chainId": "0x515"
      },
      "additionalContracts": [],
      "isFixedGasLimit": false
    },
    {
      "hash": "0x1a327bea74e99cb1e135477afd52e12cb48942c43b14a1c6734708cc172d02e2",
      "transactionType": "CALL",
      "contractName": null,
      "contractAddress": "0x9af8a8f46fa1bd20d13a38a415bd34b16c2e0a80",
      "function": "createMarketAndDepositCollateral((address,address,address,uint256,string,string,uint256,uint256))",
      "arguments": [
        "(0x39dc391f8FFE71156212C7c3196Ef09B9C0bdDf8, 0x39dc391f8FFE71156212C7c3196Ef09B9C0bdDf8, 0x77a4D2324d8330a04a0187A36D35fA4B542d17eb, 100000000, Will the U.S. Department of Education be dismantled by December 31, 2025?, This market resolves to YES if the U.S. Department of Education will be dismantled by December 31, 2025., 2592000, 0)"
      ],
      "transaction": {
        "from": "0x39dc391f8ffe71156212c7c3196ef09b9c0bddf8",
        "to": "0x9af8a8f46fa1bd20d13a38a415bd34b16c2e0a80",
        "gas": "0x2bbe48",
        "value": "0x0",
        "input": "0xcb916b33000000000000000000000000000000000000000000000000000000000000002000000000000000000000000039dc391f8ffe71156212c7c3196ef09b9c0bddf800000000000000000000000039dc391f8ffe71156212c7c3196ef09b9c0bddf800000000000000000000000077a4d2324d8330a04a0187a36d35fa4b542d17eb0000000000000000000000000000000000000000000000000000000005f5e100000000000000000000000000000000000000000000000000000000000000010000000000000000000000000000000000000000000000000000000000000001800000000000000000000000000000000000000000000000000000000000278d000000000000000000000000000000000000000000000000000000000000000000000000000000000000000000000000000000000000000000000000000000004957696c6c2074686520552e532e204465706172746d656e74206f6620456475636174696f6e206265206469736d616e746c656420627920446563656d6265722033312c20323032353f0000000000000000000000000000000000000000000000000000000000000000000000000000000000000000000000000000000000006854686973206d61726b6574207265736f6c76657320746f205945532069662074686520552e532e204465706172746d656e74206f6620456475636174696f6e2077696c6c206265206469736d616e746c656420627920446563656d6265722033312c20323032352e000000000000000000000000000000000000000000000000",
        "nonce": "0x159",
        "chainId": "0x515"
      },
      "additionalContracts": [
        {
          "transactionType": "CREATE",
          "address": "0x9e03cb327c153beacfcb1bedf5812e03a5448ed7",
          "initCode": "0x608060405234801561000f575f80fd5b50604051610c65380380610c6583398101604081905261002e91610179565b338282600361003d8382610262565b50600461004a8282610262565b5050506001600160a01b03811661007a57604051631e4fbdf760e01b81525f600482015260240160405180910390fd5b6100838161008b565b50505061031c565b600580546001600160a01b038381166001600160a01b0319831681179093556040519116919082907f8be0079c531659141344cd1fd0a4f28419497f9722a3daafe3b4186f6b6457e0905f90a35050565b634e487b7160e01b5f52604160045260245ffd5b5f82601f8301126100ff575f80fd5b81516001600160401b03811115610118576101186100dc565b604051601f8201601f19908116603f011681016001600160401b0381118282101715610146576101466100dc565b60405281815283820160200185101561015d575f80fd5b8160208501602083015e5f918101602001919091529392505050565b5f806040838503121561018a575f80fd5b82516001600160401b0381111561019f575f80fd5b6101ab858286016100f0565b602085015190935090506001600160401b038111156101c8575f80fd5b6101d4858286016100f0565b9150509250929050565b600181811c908216806101f257607f821691505b60208210810361021057634e487b7160e01b5f52602260045260245ffd5b50919050565b601f82111561025d57805f5260205f20601f840160051c8101602085101561023b5750805b601f840160051c820191505b8181101561025a575f8155600101610247565b50505b505050565b81516001600160401b0381111561027b5761027b6100dc565b61028f8161028984546101de565b84610216565b6020601f8211600181146102c1575f83156102aa5750848201515b5f19600385901b1c1916600184901b17845561025a565b5f84815260208120601f198516915b828110156102f057878501518255602094850194600190920191016102d0565b508482101561030d57868401515f19600387901b60f8161c191681555b50505050600190811b01905550565b61093c806103295f395ff3fe608060405234801561000f575f80fd5b50600436106100e5575f3560e01c8063715018a61161008857806395d89b411161006357806395d89b41146101d1578063a9059cbb146101d9578063dd62ed3e146101ec578063f2fde38b146101ff575f80fd5b8063715018a61461019b57806379cc6790146101a35780638da5cb5b146101b6575f80fd5b806323b872dd116100c357806323b872dd1461013c578063313ce5671461014f57806340c10f191461015e57806370a0823114610173575f80fd5b806306fdde03146100e9578063095ea7b31461010757806318160ddd1461012a575b5f80fd5b6100f1610212565b6040516100fe91906107c7565b60405180910390f35b61011a610115366004610817565b6102a2565b60405190151581526020016100fe565b6002545b6040519081526020016100fe565b61011a61014a36600461083f565b6102bb565b604051601281526020016100fe565b61017161016c366004610817565b6102de565b005b61012e610181366004610879565b6001600160a01b03165f9081526020819052604090205490565b6101716102f4565b6101716101b1366004610817565b610307565b6005546040516001600160a01b0390911681526020016100fe565b6100f1610398565b61011a6101e7366004610817565b6103a7565b61012e6101fa366004610899565b6103b4565b61017161020d366004610879565b6103de565b606060038054610221906108ca565b80601f016020809104026020016040519081016040528092919081815260200182805461024d906108ca565b80156102985780601f1061026f57610100808354040283529160200191610298565b820191905f5260205f20905b81548152906001019060200180831161027b57829003601f168201915b5050505050905090565b5f336102af81858561041b565b60019150505b92915050565b5f336102c8858285610428565b6102d385858561048c565b506001949350505050565b6102e66104e9565b6102f08282610516565b5050565b6102fc6104e9565b6103055f61054a565b565b5f61031283336103b4565b9050818110156103755760405162461bcd60e51b8152602060048201526024808201527f45524332303a206275726e20616d6f756e74206578636565647320616c6c6f77604482015263616e636560e01b60648201526084015b60405180910390fd5b61038983336103848585610916565b61041b565b610393838361059b565b505050565b606060048054610221906108ca565b5f336102af81858561048c565b6001600160a01b039182165f90815260016020908152604080832093909416825291909152205490565b6103e66104e9565b6001600160a01b03811661040f57604051631e4fbdf760e01b81525f600482015260240161036c565b6104188161054a565b50565b61039383838360016105cf565b5f61043384846103b4565b90505f19811015610486578181101561047857604051637dc7a0d960e11b81526001600160a01b0384166004820152602481018290526044810183905260640161036c565b61048684848484035f6105cf565b50505050565b6001600160a01b0383166104b557604051634b637e8f60e11b81525f600482015260240161036c565b6001600160a01b0382166104de5760405163ec442f0560e01b81525f600482015260240161036c565b6103938383836106a1565b6005546001600160a01b031633146103055760405163118cdaa760e01b815233600482015260240161036c565b6001600160a01b03821661053f5760405163ec442f0560e01b81525f600482015260240161036c565b6102f05f83836106a1565b600580546001600160a01b038381166001600160a01b0319831681179093556040519116919082907f8be0079c531659141344cd1fd0a4f28419497f9722a3daafe3b4186f6b6457e0905f90a35050565b6001600160a01b0382166105c457604051634b637e8f60e11b81525f600482015260240161036c565b6102f0825f836106a1565b6001600160a01b0384166105f85760405163e602df0560e01b81525f600482015260240161036c565b6001600160a01b03831661062157604051634a1406b160e11b81525f600482015260240161036c565b6001600160a01b038085165f908152600160209081526040808320938716835292905220829055801561048657826001600160a01b0316846001600160a01b03167f8c5be1e5ebec7d5bd14f71427d1e84f3dd0314c0f7b2291e5b200ac8c7c3b9258460405161069391815260200190565b60405180910390a350505050565b6001600160a01b0383166106cb578060025f8282546106c09190610929565b9091555061073b9050565b6001600160a01b0383165f908152602081905260409020548181101561071d5760405163391434e360e21b81526001600160a01b0385166004820152602481018290526044810183905260640161036c565b6001600160a01b0384165f9081526020819052604090209082900390555b6001600160a01b03821661075757600280548290039055610775565b6001600160a01b0382165f9081526020819052604090208054820190555b816001600160a01b0316836001600160a01b03167fddf252ad1be2c89b69c2b068fc378daa952ba7f163c4a11628f55a4df523b3ef836040516107ba91815260200190565b60405180910390a3505050565b602081525f82518060208401528060208501604085015e5f604082850101526040601f19601f83011684010191505092915050565b80356001600160a01b0381168114610812575f80fd5b919050565b5f8060408385031215610828575f80fd5b610831836107fc565b946020939093013593505050565b5f805f60608486031215610851575f80fd5b61085a846107fc565b9250610868602085016107fc565b929592945050506040919091013590565b5f60208284031215610889575f80fd5b610892826107fc565b9392505050565b5f80604083850312156108aa575f80fd5b6108b3836107fc565b91506108c1602084016107fc565b90509250929050565b600181811c908216806108de57607f821691505b6020821081036108fc57634e487b7160e01b5f52602260045260245ffd5b50919050565b634e487b7160e01b5f52601160045260245ffd5b818103818111156102b5576102b5610902565b808201808211156102b5576102b56109025600000000000000000000000000000000000000000000000000000000000000400000000000000000000000000000000000000000000000000000000000000080000000000000000000000000000000000000000000000000000000000000000a4d61726b6574205945530000000000000000000000000000000000000000000000000000000000000000000000000000000000000000000000000000000000035945530000000000000000000000000000000000000000000000000000000000"
        },
        {
          "transactionType": "CREATE",
          "address": "0xeb8f887b4b5ec60b7038c9e5d231115791fde53f",
          "initCode": "0x608060405234801561000f575f80fd5b50604051610c65380380610c6583398101604081905261002e91610179565b338282600361003d8382610262565b50600461004a8282610262565b5050506001600160a01b03811661007a57604051631e4fbdf760e01b81525f600482015260240160405180910390fd5b6100838161008b565b50505061031c565b600580546001600160a01b038381166001600160a01b0319831681179093556040519116919082907f8be0079c531659141344cd1fd0a4f28419497f9722a3daafe3b4186f6b6457e0905f90a35050565b634e487b7160e01b5f52604160045260245ffd5b5f82601f8301126100ff575f80fd5b81516001600160401b03811115610118576101186100dc565b604051601f8201601f19908116603f011681016001600160401b0381118282101715610146576101466100dc565b60405281815283820160200185101561015d575f80fd5b8160208501602083015e5f918101602001919091529392505050565b5f806040838503121561018a575f80fd5b82516001600160401b0381111561019f575f80fd5b6101ab858286016100f0565b602085015190935090506001600160401b038111156101c8575f80fd5b6101d4858286016100f0565b9150509250929050565b600181811c908216806101f257607f821691505b60208210810361021057634e487b7160e01b5f52602260045260245ffd5b50919050565b601f82111561025d57805f5260205f20601f840160051c8101602085101561023b5750805b601f840160051c820191505b8181101561025a575f8155600101610247565b50505b505050565b81516001600160401b0381111561027b5761027b6100dc565b61028f8161028984546101de565b84610216565b6020601f8211600181146102c1575f83156102aa5750848201515b5f19600385901b1c1916600184901b17845561025a565b5f84815260208120601f198516915b828110156102f057878501518255602094850194600190920191016102d0565b508482101561030d57868401515f19600387901b60f8161c191681555b50505050600190811b01905550565b61093c806103295f395ff3fe608060405234801561000f575f80fd5b50600436106100e5575f3560e01c8063715018a61161008857806395d89b411161006357806395d89b41146101d1578063a9059cbb146101d9578063dd62ed3e146101ec578063f2fde38b146101ff575f80fd5b8063715018a61461019b57806379cc6790146101a35780638da5cb5b146101b6575f80fd5b806323b872dd116100c357806323b872dd1461013c578063313ce5671461014f57806340c10f191461015e57806370a0823114610173575f80fd5b806306fdde03146100e9578063095ea7b31461010757806318160ddd1461012a575b5f80fd5b6100f1610212565b6040516100fe91906107c7565b60405180910390f35b61011a610115366004610817565b6102a2565b60405190151581526020016100fe565b6002545b6040519081526020016100fe565b61011a61014a36600461083f565b6102bb565b604051601281526020016100fe565b61017161016c366004610817565b6102de565b005b61012e610181366004610879565b6001600160a01b03165f9081526020819052604090205490565b6101716102f4565b6101716101b1366004610817565b610307565b6005546040516001600160a01b0390911681526020016100fe565b6100f1610398565b61011a6101e7366004610817565b6103a7565b61012e6101fa366004610899565b6103b4565b61017161020d366004610879565b6103de565b606060038054610221906108ca565b80601f016020809104026020016040519081016040528092919081815260200182805461024d906108ca565b80156102985780601f1061026f57610100808354040283529160200191610298565b820191905f5260205f20905b81548152906001019060200180831161027b57829003601f168201915b5050505050905090565b5f336102af81858561041b565b60019150505b92915050565b5f336102c8858285610428565b6102d385858561048c565b506001949350505050565b6102e66104e9565b6102f08282610516565b5050565b6102fc6104e9565b6103055f61054a565b565b5f61031283336103b4565b9050818110156103755760405162461bcd60e51b8152602060048201526024808201527f45524332303a206275726e20616d6f756e74206578636565647320616c6c6f77604482015263616e636560e01b60648201526084015b60405180910390fd5b61038983336103848585610916565b61041b565b610393838361059b565b505050565b606060048054610221906108ca565b5f336102af81858561048c565b6001600160a01b039182165f90815260016020908152604080832093909416825291909152205490565b6103e66104e9565b6001600160a01b03811661040f57604051631e4fbdf760e01b81525f600482015260240161036c565b6104188161054a565b50565b61039383838360016105cf565b5f61043384846103b4565b90505f19811015610486578181101561047857604051637dc7a0d960e11b81526001600160a01b0384166004820152602481018290526044810183905260640161036c565b61048684848484035f6105cf565b50505050565b6001600160a01b0383166104b557604051634b637e8f60e11b81525f600482015260240161036c565b6001600160a01b0382166104de5760405163ec442f0560e01b81525f600482015260240161036c565b6103938383836106a1565b6005546001600160a01b031633146103055760405163118cdaa760e01b815233600482015260240161036c565b6001600160a01b03821661053f5760405163ec442f0560e01b81525f600482015260240161036c565b6102f05f83836106a1565b600580546001600160a01b038381166001600160a01b0319831681179093556040519116919082907f8be0079c531659141344cd1fd0a4f28419497f9722a3daafe3b4186f6b6457e0905f90a35050565b6001600160a01b0382166105c457604051634b637e8f60e11b81525f600482015260240161036c565b6102f0825f836106a1565b6001600160a01b0384166105f85760405163e602df0560e01b81525f600482015260240161036c565b6001600160a01b03831661062157604051634a1406b160e11b81525f600482015260240161036c565b6001600160a01b038085165f908152600160209081526040808320938716835292905220829055801561048657826001600160a01b0316846001600160a01b03167f8c5be1e5ebec7d5bd14f71427d1e84f3dd0314c0f7b2291e5b200ac8c7c3b9258460405161069391815260200190565b60405180910390a350505050565b6001600160a01b0383166106cb578060025f8282546106c09190610929565b9091555061073b9050565b6001600160a01b0383165f908152602081905260409020548181101561071d5760405163391434e360e21b81526001600160a01b0385166004820152602481018290526044810183905260640161036c565b6001600160a01b0384165f9081526020819052604090209082900390555b6001600160a01b03821661075757600280548290039055610775565b6001600160a01b0382165f9081526020819052604090208054820190555b816001600160a01b0316836001600160a01b03167fddf252ad1be2c89b69c2b068fc378daa952ba7f163c4a11628f55a4df523b3ef836040516107ba91815260200190565b60405180910390a3505050565b602081525f82518060208401528060208501604085015e5f604082850101526040601f19601f83011684010191505092915050565b80356001600160a01b0381168114610812575f80fd5b919050565b5f8060408385031215610828575f80fd5b610831836107fc565b946020939093013593505050565b5f805f60608486031215610851575f80fd5b61085a846107fc565b9250610868602085016107fc565b929592945050506040919091013590565b5f60208284031215610889575f80fd5b610892826107fc565b9392505050565b5f80604083850312156108aa575f80fd5b6108b3836107fc565b91506108c1602084016107fc565b90509250929050565b600181811c908216806108de57607f821691505b6020821081036108fc57634e487b7160e01b5f52602260045260245ffd5b50919050565b634e487b7160e01b5f52601160045260245ffd5b818103818111156102b5576102b5610902565b808201808211156102b5576102b5610902560000000000000000000000000000000000000000000000000000000000000040000000000000000000000000000000000000000000000000000000000000008000000000000000000000000000000000000000000000000000000000000000094d61726b6574204e4f000000000000000000000000000000000000000000000000000000000000000000000000000000000000000000000000000000000000024e4f000000000000000000000000000000000000000000000000000000000000"
        }
      ],
      "isFixedGasLimit": false
    },
    {
      "hash": "0x28e4ed5b65cd37ca6650013bc446c9753cdb36a3cdd02142f75584980498ca28",
      "transactionType": "CALL",
      "contractName": null,
      "contractAddress": "0x9af8a8f46fa1bd20d13a38a415bd34b16c2e0a80",
      "function": "createMarketAndDepositCollateral((address,address,address,uint256,string,string,uint256,uint256))",
      "arguments": [
        "(0x39dc391f8FFE71156212C7c3196Ef09B9C0bdDf8, 0x39dc391f8FFE71156212C7c3196Ef09B9C0bdDf8, 0x77a4D2324d8330a04a0187A36D35fA4B542d17eb, 100000000, Will the U.S. acquire greenland by December 31, 2025?, Market resolves to YES if the U.S. acquires Greenland by December 31, 2025., 2592000, 0)"
      ],
      "transaction": {
        "from": "0x39dc391f8ffe71156212c7c3196ef09b9c0bddf8",
        "to": "0x9af8a8f46fa1bd20d13a38a415bd34b16c2e0a80",
        "gas": "0x27fffb",
        "value": "0x0",
        "input": "0xcb916b33000000000000000000000000000000000000000000000000000000000000002000000000000000000000000039dc391f8ffe71156212c7c3196ef09b9c0bddf800000000000000000000000039dc391f8ffe71156212c7c3196ef09b9c0bddf800000000000000000000000077a4d2324d8330a04a0187a36d35fa4b542d17eb0000000000000000000000000000000000000000000000000000000005f5e100000000000000000000000000000000000000000000000000000000000000010000000000000000000000000000000000000000000000000000000000000001600000000000000000000000000000000000000000000000000000000000278d000000000000000000000000000000000000000000000000000000000000000000000000000000000000000000000000000000000000000000000000000000003557696c6c2074686520552e532e206163717569726520677265656e6c616e6420627920446563656d6265722033312c20323032353f0000000000000000000000000000000000000000000000000000000000000000000000000000000000004b4d61726b6574207265736f6c76657320746f205945532069662074686520552e532e20616371756972657320477265656e6c616e6420627920446563656d6265722033312c20323032352e000000000000000000000000000000000000000000",
        "nonce": "0x15a",
        "chainId": "0x515"
      },
      "additionalContracts": [
        {
          "transactionType": "CREATE",
          "address": "0x39b66b908cae81807a57f02b36e48241186d4dfd",
          "initCode": "0x608060405234801561000f575f80fd5b50604051610c65380380610c6583398101604081905261002e91610179565b338282600361003d8382610262565b50600461004a8282610262565b5050506001600160a01b03811661007a57604051631e4fbdf760e01b81525f600482015260240160405180910390fd5b6100838161008b565b50505061031c565b600580546001600160a01b038381166001600160a01b0319831681179093556040519116919082907f8be0079c531659141344cd1fd0a4f28419497f9722a3daafe3b4186f6b6457e0905f90a35050565b634e487b7160e01b5f52604160045260245ffd5b5f82601f8301126100ff575f80fd5b81516001600160401b03811115610118576101186100dc565b604051601f8201601f19908116603f011681016001600160401b0381118282101715610146576101466100dc565b60405281815283820160200185101561015d575f80fd5b8160208501602083015e5f918101602001919091529392505050565b5f806040838503121561018a575f80fd5b82516001600160401b0381111561019f575f80fd5b6101ab858286016100f0565b602085015190935090506001600160401b038111156101c8575f80fd5b6101d4858286016100f0565b9150509250929050565b600181811c908216806101f257607f821691505b60208210810361021057634e487b7160e01b5f52602260045260245ffd5b50919050565b601f82111561025d57805f5260205f20601f840160051c8101602085101561023b5750805b601f840160051c820191505b8181101561025a575f8155600101610247565b50505b505050565b81516001600160401b0381111561027b5761027b6100dc565b61028f8161028984546101de565b84610216565b6020601f8211600181146102c1575f83156102aa5750848201515b5f19600385901b1c1916600184901b17845561025a565b5f84815260208120601f198516915b828110156102f057878501518255602094850194600190920191016102d0565b508482101561030d57868401515f19600387901b60f8161c191681555b50505050600190811b01905550565b61093c806103295f395ff3fe608060405234801561000f575f80fd5b50600436106100e5575f3560e01c8063715018a61161008857806395d89b411161006357806395d89b41146101d1578063a9059cbb146101d9578063dd62ed3e146101ec578063f2fde38b146101ff575f80fd5b8063715018a61461019b57806379cc6790146101a35780638da5cb5b146101b6575f80fd5b806323b872dd116100c357806323b872dd1461013c578063313ce5671461014f57806340c10f191461015e57806370a0823114610173575f80fd5b806306fdde03146100e9578063095ea7b31461010757806318160ddd1461012a575b5f80fd5b6100f1610212565b6040516100fe91906107c7565b60405180910390f35b61011a610115366004610817565b6102a2565b60405190151581526020016100fe565b6002545b6040519081526020016100fe565b61011a61014a36600461083f565b6102bb565b604051601281526020016100fe565b61017161016c366004610817565b6102de565b005b61012e610181366004610879565b6001600160a01b03165f9081526020819052604090205490565b6101716102f4565b6101716101b1366004610817565b610307565b6005546040516001600160a01b0390911681526020016100fe565b6100f1610398565b61011a6101e7366004610817565b6103a7565b61012e6101fa366004610899565b6103b4565b61017161020d366004610879565b6103de565b606060038054610221906108ca565b80601f016020809104026020016040519081016040528092919081815260200182805461024d906108ca565b80156102985780601f1061026f57610100808354040283529160200191610298565b820191905f5260205f20905b81548152906001019060200180831161027b57829003601f168201915b5050505050905090565b5f336102af81858561041b565b60019150505b92915050565b5f336102c8858285610428565b6102d385858561048c565b506001949350505050565b6102e66104e9565b6102f08282610516565b5050565b6102fc6104e9565b6103055f61054a565b565b5f61031283336103b4565b9050818110156103755760405162461bcd60e51b8152602060048201526024808201527f45524332303a206275726e20616d6f756e74206578636565647320616c6c6f77604482015263616e636560e01b60648201526084015b60405180910390fd5b61038983336103848585610916565b61041b565b610393838361059b565b505050565b606060048054610221906108ca565b5f336102af81858561048c565b6001600160a01b039182165f90815260016020908152604080832093909416825291909152205490565b6103e66104e9565b6001600160a01b03811661040f57604051631e4fbdf760e01b81525f600482015260240161036c565b6104188161054a565b50565b61039383838360016105cf565b5f61043384846103b4565b90505f19811015610486578181101561047857604051637dc7a0d960e11b81526001600160a01b0384166004820152602481018290526044810183905260640161036c565b61048684848484035f6105cf565b50505050565b6001600160a01b0383166104b557604051634b637e8f60e11b81525f600482015260240161036c565b6001600160a01b0382166104de5760405163ec442f0560e01b81525f600482015260240161036c565b6103938383836106a1565b6005546001600160a01b031633146103055760405163118cdaa760e01b815233600482015260240161036c565b6001600160a01b03821661053f5760405163ec442f0560e01b81525f600482015260240161036c565b6102f05f83836106a1565b600580546001600160a01b038381166001600160a01b0319831681179093556040519116919082907f8be0079c531659141344cd1fd0a4f28419497f9722a3daafe3b4186f6b6457e0905f90a35050565b6001600160a01b0382166105c457604051634b637e8f60e11b81525f600482015260240161036c565b6102f0825f836106a1565b6001600160a01b0384166105f85760405163e602df0560e01b81525f600482015260240161036c565b6001600160a01b03831661062157604051634a1406b160e11b81525f600482015260240161036c565b6001600160a01b038085165f908152600160209081526040808320938716835292905220829055801561048657826001600160a01b0316846001600160a01b03167f8c5be1e5ebec7d5bd14f71427d1e84f3dd0314c0f7b2291e5b200ac8c7c3b9258460405161069391815260200190565b60405180910390a350505050565b6001600160a01b0383166106cb578060025f8282546106c09190610929565b9091555061073b9050565b6001600160a01b0383165f908152602081905260409020548181101561071d5760405163391434e360e21b81526001600160a01b0385166004820152602481018290526044810183905260640161036c565b6001600160a01b0384165f9081526020819052604090209082900390555b6001600160a01b03821661075757600280548290039055610775565b6001600160a01b0382165f9081526020819052604090208054820190555b816001600160a01b0316836001600160a01b03167fddf252ad1be2c89b69c2b068fc378daa952ba7f163c4a11628f55a4df523b3ef836040516107ba91815260200190565b60405180910390a3505050565b602081525f82518060208401528060208501604085015e5f604082850101526040601f19601f83011684010191505092915050565b80356001600160a01b0381168114610812575f80fd5b919050565b5f8060408385031215610828575f80fd5b610831836107fc565b946020939093013593505050565b5f805f60608486031215610851575f80fd5b61085a846107fc565b9250610868602085016107fc565b929592945050506040919091013590565b5f60208284031215610889575f80fd5b610892826107fc565b9392505050565b5f80604083850312156108aa575f80fd5b6108b3836107fc565b91506108c1602084016107fc565b90509250929050565b600181811c908216806108de57607f821691505b6020821081036108fc57634e487b7160e01b5f52602260045260245ffd5b50919050565b634e487b7160e01b5f52601160045260245ffd5b818103818111156102b5576102b5610902565b808201808211156102b5576102b56109025600000000000000000000000000000000000000000000000000000000000000400000000000000000000000000000000000000000000000000000000000000080000000000000000000000000000000000000000000000000000000000000000a4d61726b6574205945530000000000000000000000000000000000000000000000000000000000000000000000000000000000000000000000000000000000035945530000000000000000000000000000000000000000000000000000000000"
        },
        {
          "transactionType": "CREATE",
          "address": "0x90c7dea43c8b9f66644503af0d7b80b3f707fe1a",
          "initCode": "0x608060405234801561000f575f80fd5b50604051610c65380380610c6583398101604081905261002e91610179565b338282600361003d8382610262565b50600461004a8282610262565b5050506001600160a01b03811661007a57604051631e4fbdf760e01b81525f600482015260240160405180910390fd5b6100838161008b565b50505061031c565b600580546001600160a01b038381166001600160a01b0319831681179093556040519116919082907f8be0079c531659141344cd1fd0a4f28419497f9722a3daafe3b4186f6b6457e0905f90a35050565b634e487b7160e01b5f52604160045260245ffd5b5f82601f8301126100ff575f80fd5b81516001600160401b03811115610118576101186100dc565b604051601f8201601f19908116603f011681016001600160401b0381118282101715610146576101466100dc565b60405281815283820160200185101561015d575f80fd5b8160208501602083015e5f918101602001919091529392505050565b5f806040838503121561018a575f80fd5b82516001600160401b0381111561019f575f80fd5b6101ab858286016100f0565b602085015190935090506001600160401b038111156101c8575f80fd5b6101d4858286016100f0565b9150509250929050565b600181811c908216806101f257607f821691505b60208210810361021057634e487b7160e01b5f52602260045260245ffd5b50919050565b601f82111561025d57805f5260205f20601f840160051c8101602085101561023b5750805b601f840160051c820191505b8181101561025a575f8155600101610247565b50505b505050565b81516001600160401b0381111561027b5761027b6100dc565b61028f8161028984546101de565b84610216565b6020601f8211600181146102c1575f83156102aa5750848201515b5f19600385901b1c1916600184901b17845561025a565b5f84815260208120601f198516915b828110156102f057878501518255602094850194600190920191016102d0565b508482101561030d57868401515f19600387901b60f8161c191681555b50505050600190811b01905550565b61093c806103295f395ff3fe608060405234801561000f575f80fd5b50600436106100e5575f3560e01c8063715018a61161008857806395d89b411161006357806395d89b41146101d1578063a9059cbb146101d9578063dd62ed3e146101ec578063f2fde38b146101ff575f80fd5b8063715018a61461019b57806379cc6790146101a35780638da5cb5b146101b6575f80fd5b806323b872dd116100c357806323b872dd1461013c578063313ce5671461014f57806340c10f191461015e57806370a0823114610173575f80fd5b806306fdde03146100e9578063095ea7b31461010757806318160ddd1461012a575b5f80fd5b6100f1610212565b6040516100fe91906107c7565b60405180910390f35b61011a610115366004610817565b6102a2565b60405190151581526020016100fe565b6002545b6040519081526020016100fe565b61011a61014a36600461083f565b6102bb565b604051601281526020016100fe565b61017161016c366004610817565b6102de565b005b61012e610181366004610879565b6001600160a01b03165f9081526020819052604090205490565b6101716102f4565b6101716101b1366004610817565b610307565b6005546040516001600160a01b0390911681526020016100fe565b6100f1610398565b61011a6101e7366004610817565b6103a7565b61012e6101fa366004610899565b6103b4565b61017161020d366004610879565b6103de565b606060038054610221906108ca565b80601f016020809104026020016040519081016040528092919081815260200182805461024d906108ca565b80156102985780601f1061026f57610100808354040283529160200191610298565b820191905f5260205f20905b81548152906001019060200180831161027b57829003601f168201915b5050505050905090565b5f336102af81858561041b565b60019150505b92915050565b5f336102c8858285610428565b6102d385858561048c565b506001949350505050565b6102e66104e9565b6102f08282610516565b5050565b6102fc6104e9565b6103055f61054a565b565b5f61031283336103b4565b9050818110156103755760405162461bcd60e51b8152602060048201526024808201527f45524332303a206275726e20616d6f756e74206578636565647320616c6c6f77604482015263616e636560e01b60648201526084015b60405180910390fd5b61038983336103848585610916565b61041b565b610393838361059b565b505050565b606060048054610221906108ca565b5f336102af81858561048c565b6001600160a01b039182165f90815260016020908152604080832093909416825291909152205490565b6103e66104e9565b6001600160a01b03811661040f57604051631e4fbdf760e01b81525f600482015260240161036c565b6104188161054a565b50565b61039383838360016105cf565b5f61043384846103b4565b90505f19811015610486578181101561047857604051637dc7a0d960e11b81526001600160a01b0384166004820152602481018290526044810183905260640161036c565b61048684848484035f6105cf565b50505050565b6001600160a01b0383166104b557604051634b637e8f60e11b81525f600482015260240161036c565b6001600160a01b0382166104de5760405163ec442f0560e01b81525f600482015260240161036c565b6103938383836106a1565b6005546001600160a01b031633146103055760405163118cdaa760e01b815233600482015260240161036c565b6001600160a01b03821661053f5760405163ec442f0560e01b81525f600482015260240161036c565b6102f05f83836106a1565b600580546001600160a01b038381166001600160a01b0319831681179093556040519116919082907f8be0079c531659141344cd1fd0a4f28419497f9722a3daafe3b4186f6b6457e0905f90a35050565b6001600160a01b0382166105c457604051634b637e8f60e11b81525f600482015260240161036c565b6102f0825f836106a1565b6001600160a01b0384166105f85760405163e602df0560e01b81525f600482015260240161036c565b6001600160a01b03831661062157604051634a1406b160e11b81525f600482015260240161036c565b6001600160a01b038085165f908152600160209081526040808320938716835292905220829055801561048657826001600160a01b0316846001600160a01b03167f8c5be1e5ebec7d5bd14f71427d1e84f3dd0314c0f7b2291e5b200ac8c7c3b9258460405161069391815260200190565b60405180910390a350505050565b6001600160a01b0383166106cb578060025f8282546106c09190610929565b9091555061073b9050565b6001600160a01b0383165f908152602081905260409020548181101561071d5760405163391434e360e21b81526001600160a01b0385166004820152602481018290526044810183905260640161036c565b6001600160a01b0384165f9081526020819052604090209082900390555b6001600160a01b03821661075757600280548290039055610775565b6001600160a01b0382165f9081526020819052604090208054820190555b816001600160a01b0316836001600160a01b03167fddf252ad1be2c89b69c2b068fc378daa952ba7f163c4a11628f55a4df523b3ef836040516107ba91815260200190565b60405180910390a3505050565b602081525f82518060208401528060208501604085015e5f604082850101526040601f19601f83011684010191505092915050565b80356001600160a01b0381168114610812575f80fd5b919050565b5f8060408385031215610828575f80fd5b610831836107fc565b946020939093013593505050565b5f805f60608486031215610851575f80fd5b61085a846107fc565b9250610868602085016107fc565b929592945050506040919091013590565b5f60208284031215610889575f80fd5b610892826107fc565b9392505050565b5f80604083850312156108aa575f80fd5b6108b3836107fc565b91506108c1602084016107fc565b90509250929050565b600181811c908216806108de57607f821691505b6020821081036108fc57634e487b7160e01b5f52602260045260245ffd5b50919050565b634e487b7160e01b5f52601160045260245ffd5b818103818111156102b5576102b5610902565b808201808211156102b5576102b5610902560000000000000000000000000000000000000000000000000000000000000040000000000000000000000000000000000000000000000000000000000000008000000000000000000000000000000000000000000000000000000000000000094d61726b6574204e4f000000000000000000000000000000000000000000000000000000000000000000000000000000000000000000000000000000000000024e4f000000000000000000000000000000000000000000000000000000000000"
        }
      ],
      "isFixedGasLimit": false
    },
    {
      "hash": "0x223e25c6c5092169b9a606bf2c776f3e6d2726278b3128c37bb56b35672fe6c0",
      "transactionType": "CALL",
      "contractName": null,
      "contractAddress": "0x897a5f7646c4b3f50916c1460469aeafafa2d72b",
      "function": "approve(address,uint256)",
      "arguments": [
        "0xCeC6820C80EF37636BAE28aBc4874aa4153FdD78",
        "115792089237316195423570985008687907853269984665640564039457584007913129639935"
      ],
      "transaction": {
        "from": "0x39dc391f8ffe71156212c7c3196ef09b9c0bddf8",
        "to": "0x897a5f7646c4b3f50916c1460469aeafafa2d72b",
        "gas": "0x991d",
        "value": "0x0",
        "input": "0x095ea7b3000000000000000000000000cec6820c80ef37636bae28abc4874aa4153fdd78ffffffffffffffffffffffffffffffffffffffffffffffffffffffffffffffff",
        "nonce": "0x15b",
        "chainId": "0x515"
      },
      "additionalContracts": [],
      "isFixedGasLimit": false
    },
    {
      "hash": "0x83ffea54f07c46cc472f1631715f923a9ee5ec2aa6620fc14e421951ca414cb9",
      "transactionType": "CALL",
      "contractName": null,
      "contractAddress": "0xcc2eed3bc01abd1da6e8a1f35d2b71e969aab6a5",
      "function": "approve(address,uint256)",
      "arguments": [
        "0xCeC6820C80EF37636BAE28aBc4874aa4153FdD78",
        "115792089237316195423570985008687907853269984665640564039457584007913129639935"
      ],
      "transaction": {
        "from": "0x39dc391f8ffe71156212c7c3196ef09b9c0bddf8",
        "to": "0xcc2eed3bc01abd1da6e8a1f35d2b71e969aab6a5",
        "gas": "0x991d",
        "value": "0x0",
        "input": "0x095ea7b3000000000000000000000000cec6820c80ef37636bae28abc4874aa4153fdd78ffffffffffffffffffffffffffffffffffffffffffffffffffffffffffffffff",
        "nonce": "0x15c",
        "chainId": "0x515"
      },
      "additionalContracts": [],
      "isFixedGasLimit": false
    },
    {
      "hash": "0x48741e0f6a43c23faf173068316d5194f899372f15ad1c546589ec4b7c9c7f0f",
      "transactionType": "CALL",
      "contractName": "ERC20Mock",
      "contractAddress": "0x77a4d2324d8330a04a0187a36d35fa4b542d17eb",
      "function": "approve(address,uint256)",
      "arguments": [
        "0xCeC6820C80EF37636BAE28aBc4874aa4153FdD78",
        "115792089237316195423570985008687907853269984665640564039457584007913129639935"
      ],
      "transaction": {
        "from": "0x39dc391f8ffe71156212c7c3196ef09b9c0bddf8",
        "to": "0x77a4d2324d8330a04a0187a36d35fa4b542d17eb",
        "gas": "0xfbda",
        "value": "0x0",
        "input": "0x095ea7b3000000000000000000000000cec6820c80ef37636bae28abc4874aa4153fdd78ffffffffffffffffffffffffffffffffffffffffffffffffffffffffffffffff",
        "nonce": "0x15d",
        "chainId": "0x515"
      },
      "additionalContracts": [],
      "isFixedGasLimit": false
    },
    {
      "hash": null,
      "transactionType": "CALL",
      "contractName": null,
      "contractAddress": "0xcec6820c80ef37636bae28abc4874aa4153fdd78",
      "function": "modifyLiquidity((address,address,uint24,int24,address),(int24,int24,int256,bytes32),bytes)",
      "arguments": [
        "(0x897A5f7646c4B3F50916C1460469aeAfAfA2D72B, 0xabe6c3A133ff49e12EBcE8AA927A1684d572D862, 10000, 100, 0x9AF8a8F46fA1BD20d13a38a415Bd34B16c2e0A80)",
        "(-9200, -100, 122864222, 0x0000000000000000000000000000000000000000000000000000000000000000)",
        "0x"
      ],
      "transaction": {
        "from": "0x39dc391f8ffe71156212c7c3196ef09b9c0bddf8",
        "to": "0xcec6820c80ef37636bae28abc4874aa4153fdd78",
        "gas": "0x3a255",
        "value": "0x0",
        "input": "0x5a6bcfda000000000000000000000000897a5f7646c4b3f50916c1460469aeafafa2d72b000000000000000000000000abe6c3a133ff49e12ebce8aa927a1684d572d862000000000000000000000000000000000000000000000000000000000000271000000000000000000000000000000000000000000000000000000000000000640000000000000000000000009af8a8f46fa1bd20d13a38a415bd34b16c2e0a80ffffffffffffffffffffffffffffffffffffffffffffffffffffffffffffdc10ffffffffffffffffffffffffffffffffffffffffffffffffffffffffffffff9c000000000000000000000000000000000000000000000000000000000752c25e000000000000000000000000000000000000000000000000000000000000000000000000000000000000000000000000000000000000000000000000000001400000000000000000000000000000000000000000000000000000000000000000",
        "nonce": "0x15e",
        "chainId": "0x515"
      },
      "additionalContracts": [],
      "isFixedGasLimit": false
    },
    {
      "hash": null,
      "transactionType": "CALL",
      "contractName": null,
      "contractAddress": "0xcec6820c80ef37636bae28abc4874aa4153fdd78",
      "function": "modifyLiquidity((address,address,uint24,int24,address),(int24,int24,int256,bytes32),bytes)",
      "arguments": [
        "(0xabe6c3A133ff49e12EBcE8AA927A1684d572D862, 0xCc2EEd3bc01ABD1dA6E8a1f35D2B71e969Aab6A5, 10000, 100, 0x9AF8a8F46fA1BD20d13a38a415Bd34B16c2e0A80)",
        "(-9200, -100, 122864222, 0x0000000000000000000000000000000000000000000000000000000000000000)",
        "0x"
      ],
      "transaction": {
        "from": "0x39dc391f8ffe71156212c7c3196ef09b9c0bddf8",
        "to": "0xcec6820c80ef37636bae28abc4874aa4153fdd78",
        "gas": "0x3a311",
        "value": "0x0",
        "input": "0x5a6bcfda000000000000000000000000abe6c3a133ff49e12ebce8aa927a1684d572d862000000000000000000000000cc2eed3bc01abd1da6e8a1f35d2b71e969aab6a5000000000000000000000000000000000000000000000000000000000000271000000000000000000000000000000000000000000000000000000000000000640000000000000000000000009af8a8f46fa1bd20d13a38a415bd34b16c2e0a80ffffffffffffffffffffffffffffffffffffffffffffffffffffffffffffdc10ffffffffffffffffffffffffffffffffffffffffffffffffffffffffffffff9c000000000000000000000000000000000000000000000000000000000752c25e000000000000000000000000000000000000000000000000000000000000000000000000000000000000000000000000000000000000000000000000000001400000000000000000000000000000000000000000000000000000000000000000",
        "nonce": "0x15f",
        "chainId": "0x515"
      },
      "additionalContracts": [],
      "isFixedGasLimit": false
    },
    {
      "hash": null,
      "transactionType": "CALL",
      "contractName": null,
      "contractAddress": "0x4a4032968c52e61ba7c77db0a3345171eb900f3e",
      "function": "approve(address,uint256)",
      "arguments": [
        "0xCeC6820C80EF37636BAE28aBc4874aa4153FdD78",
        "115792089237316195423570985008687907853269984665640564039457584007913129639935"
      ],
      "transaction": {
        "from": "0x39dc391f8ffe71156212c7c3196ef09b9c0bddf8",
        "to": "0x4a4032968c52e61ba7c77db0a3345171eb900f3e",
        "gas": "0x991d",
        "value": "0x0",
        "input": "0x095ea7b3000000000000000000000000cec6820c80ef37636bae28abc4874aa4153fdd78ffffffffffffffffffffffffffffffffffffffffffffffffffffffffffffffff",
        "nonce": "0x160",
        "chainId": "0x515"
      },
      "additionalContracts": [],
      "isFixedGasLimit": false
    },
    {
      "hash": null,
      "transactionType": "CALL",
      "contractName": null,
      "contractAddress": "0xd1ca166ce1e1bc27fc7dbb163b4704a79bdd1992",
      "function": "approve(address,uint256)",
      "arguments": [
        "0xCeC6820C80EF37636BAE28aBc4874aa4153FdD78",
        "115792089237316195423570985008687907853269984665640564039457584007913129639935"
      ],
      "transaction": {
        "from": "0x39dc391f8ffe71156212c7c3196ef09b9c0bddf8",
        "to": "0xd1ca166ce1e1bc27fc7dbb163b4704a79bdd1992",
        "gas": "0x991d",
        "value": "0x0",
        "input": "0x095ea7b3000000000000000000000000cec6820c80ef37636bae28abc4874aa4153fdd78ffffffffffffffffffffffffffffffffffffffffffffffffffffffffffffffff",
        "nonce": "0x161",
        "chainId": "0x515"
      },
      "additionalContracts": [],
      "isFixedGasLimit": false
    },
    {
      "hash": null,
      "transactionType": "CALL",
      "contractName": "ERC20Mock",
      "contractAddress": "0x77a4d2324d8330a04a0187a36d35fa4b542d17eb",
      "function": "approve(address,uint256)",
      "arguments": [
        "0xCeC6820C80EF37636BAE28aBc4874aa4153FdD78",
        "115792089237316195423570985008687907853269984665640564039457584007913129639935"
      ],
      "transaction": {
        "from": "0x39dc391f8ffe71156212c7c3196ef09b9c0bddf8",
        "to": "0x77a4d2324d8330a04a0187a36d35fa4b542d17eb",
        "gas": "0x98fb",
        "value": "0x0",
        "input": "0x095ea7b3000000000000000000000000cec6820c80ef37636bae28abc4874aa4153fdd78ffffffffffffffffffffffffffffffffffffffffffffffffffffffffffffffff",
        "nonce": "0x162",
        "chainId": "0x515"
      },
      "additionalContracts": [],
      "isFixedGasLimit": false
    },
    {
      "hash": null,
      "transactionType": "CALL",
      "contractName": null,
      "contractAddress": "0xcec6820c80ef37636bae28abc4874aa4153fdd78",
      "function": "modifyLiquidity((address,address,uint24,int24,address),(int24,int24,int256,bytes32),bytes)",
      "arguments": [
        "(0x4A4032968c52E61BA7C77DB0A3345171eB900F3E, 0xabe6c3A133ff49e12EBcE8AA927A1684d572D862, 10000, 100, 0x9AF8a8F46fA1BD20d13a38a415Bd34B16c2e0A80)",
        "(-9200, -100, 122864222, 0x0000000000000000000000000000000000000000000000000000000000000000)",
        "0x"
      ],
      "transaction": {
        "from": "0x39dc391f8ffe71156212c7c3196ef09b9c0bddf8",
        "to": "0xcec6820c80ef37636bae28abc4874aa4153fdd78",
        "gas": "0x3a255",
        "value": "0x0",
        "input": "0x5a6bcfda0000000000000000000000004a4032968c52e61ba7c77db0a3345171eb900f3e000000000000000000000000abe6c3a133ff49e12ebce8aa927a1684d572d862000000000000000000000000000000000000000000000000000000000000271000000000000000000000000000000000000000000000000000000000000000640000000000000000000000009af8a8f46fa1bd20d13a38a415bd34b16c2e0a80ffffffffffffffffffffffffffffffffffffffffffffffffffffffffffffdc10ffffffffffffffffffffffffffffffffffffffffffffffffffffffffffffff9c000000000000000000000000000000000000000000000000000000000752c25e000000000000000000000000000000000000000000000000000000000000000000000000000000000000000000000000000000000000000000000000000001400000000000000000000000000000000000000000000000000000000000000000",
        "nonce": "0x163",
        "chainId": "0x515"
      },
      "additionalContracts": [],
      "isFixedGasLimit": false
    },
    {
      "hash": null,
      "transactionType": "CALL",
      "contractName": null,
      "contractAddress": "0xcec6820c80ef37636bae28abc4874aa4153fdd78",
      "function": "modifyLiquidity((address,address,uint24,int24,address),(int24,int24,int256,bytes32),bytes)",
      "arguments": [
        "(0xabe6c3A133ff49e12EBcE8AA927A1684d572D862, 0xd1cA166CE1E1bC27Fc7DbB163B4704a79bDd1992, 10000, 100, 0x9AF8a8F46fA1BD20d13a38a415Bd34B16c2e0A80)",
        "(-9200, -100, 122864222, 0x0000000000000000000000000000000000000000000000000000000000000000)",
        "0x"
      ],
      "transaction": {
        "from": "0x39dc391f8ffe71156212c7c3196ef09b9c0bddf8",
        "to": "0xcec6820c80ef37636bae28abc4874aa4153fdd78",
        "gas": "0x3a311",
        "value": "0x0",
        "input": "0x5a6bcfda000000000000000000000000abe6c3a133ff49e12ebce8aa927a1684d572d862000000000000000000000000d1ca166ce1e1bc27fc7dbb163b4704a79bdd1992000000000000000000000000000000000000000000000000000000000000271000000000000000000000000000000000000000000000000000000000000000640000000000000000000000009af8a8f46fa1bd20d13a38a415bd34b16c2e0a80ffffffffffffffffffffffffffffffffffffffffffffffffffffffffffffdc10ffffffffffffffffffffffffffffffffffffffffffffffffffffffffffffff9c000000000000000000000000000000000000000000000000000000000752c25e000000000000000000000000000000000000000000000000000000000000000000000000000000000000000000000000000000000000000000000000000001400000000000000000000000000000000000000000000000000000000000000000",
        "nonce": "0x164",
        "chainId": "0x515"
      },
      "additionalContracts": [],
      "isFixedGasLimit": false
    },
    {
      "hash": null,
      "transactionType": "CALL",
      "contractName": "OutcomeToken",
      "contractAddress": "0x9e03cb327c153beacfcb1bedf5812e03a5448ed7",
      "function": "approve(address,uint256)",
      "arguments": [
        "0xCeC6820C80EF37636BAE28aBc4874aa4153FdD78",
        "115792089237316195423570985008687907853269984665640564039457584007913129639935"
      ],
      "transaction": {
        "from": "0x39dc391f8ffe71156212c7c3196ef09b9c0bddf8",
        "to": "0x9e03cb327c153beacfcb1bedf5812e03a5448ed7",
        "gas": "0xfbfa",
        "value": "0x0",
        "input": "0x095ea7b3000000000000000000000000cec6820c80ef37636bae28abc4874aa4153fdd78ffffffffffffffffffffffffffffffffffffffffffffffffffffffffffffffff",
        "nonce": "0x165",
        "chainId": "0x515"
      },
      "additionalContracts": [],
      "isFixedGasLimit": false
    },
    {
      "hash": null,
      "transactionType": "CALL",
      "contractName": "OutcomeToken",
      "contractAddress": "0xeb8f887b4b5ec60b7038c9e5d231115791fde53f",
      "function": "approve(address,uint256)",
      "arguments": [
        "0xCeC6820C80EF37636BAE28aBc4874aa4153FdD78",
        "115792089237316195423570985008687907853269984665640564039457584007913129639935"
      ],
      "transaction": {
        "from": "0x39dc391f8ffe71156212c7c3196ef09b9c0bddf8",
        "to": "0xeb8f887b4b5ec60b7038c9e5d231115791fde53f",
        "gas": "0xfbfa",
        "value": "0x0",
        "input": "0x095ea7b3000000000000000000000000cec6820c80ef37636bae28abc4874aa4153fdd78ffffffffffffffffffffffffffffffffffffffffffffffffffffffffffffffff",
        "nonce": "0x166",
        "chainId": "0x515"
      },
      "additionalContracts": [],
      "isFixedGasLimit": false
    },
    {
      "hash": null,
      "transactionType": "CALL",
      "contractName": "ERC20Mock",
      "contractAddress": "0x77a4d2324d8330a04a0187a36d35fa4b542d17eb",
      "function": "approve(address,uint256)",
      "arguments": [
        "0xCeC6820C80EF37636BAE28aBc4874aa4153FdD78",
        "115792089237316195423570985008687907853269984665640564039457584007913129639935"
      ],
      "transaction": {
        "from": "0x39dc391f8ffe71156212c7c3196ef09b9c0bddf8",
        "to": "0x77a4d2324d8330a04a0187a36d35fa4b542d17eb",
        "gas": "0x98fb",
        "value": "0x0",
        "input": "0x095ea7b3000000000000000000000000cec6820c80ef37636bae28abc4874aa4153fdd78ffffffffffffffffffffffffffffffffffffffffffffffffffffffffffffffff",
        "nonce": "0x167",
        "chainId": "0x515"
      },
      "additionalContracts": [],
      "isFixedGasLimit": false
    },
    {
      "hash": null,
      "transactionType": "CALL",
      "contractName": null,
      "contractAddress": "0xcec6820c80ef37636bae28abc4874aa4153fdd78",
      "function": "modifyLiquidity((address,address,uint24,int24,address),(int24,int24,int256,bytes32),bytes)",
      "arguments": [
        "(0x77a4D2324d8330a04a0187A36D35fA4B542d17eb, 0x9E03Cb327c153BeacFcB1bEdf5812e03A5448eD7, 10000, 100, 0x9AF8a8F46fA1BD20d13a38a415Bd34B16c2e0A80)",
        "(-9200, -100, 122864222, 0x0000000000000000000000000000000000000000000000000000000000000000)",
        "0x"
      ],
      "transaction": {
        "from": "0x39dc391f8ffe71156212c7c3196ef09b9c0bddf8",
        "to": "0xcec6820c80ef37636bae28abc4874aa4153fdd78",
        "gas": "0x5e6a4",
        "value": "0x0",
        "input": "0x5a6bcfda00000000000000000000000077a4d2324d8330a04a0187a36d35fa4b542d17eb0000000000000000000000009e03cb327c153beacfcb1bedf5812e03a5448ed7000000000000000000000000000000000000000000000000000000000000271000000000000000000000000000000000000000000000000000000000000000640000000000000000000000009af8a8f46fa1bd20d13a38a415bd34b16c2e0a80ffffffffffffffffffffffffffffffffffffffffffffffffffffffffffffdc10ffffffffffffffffffffffffffffffffffffffffffffffffffffffffffffff9c000000000000000000000000000000000000000000000000000000000752c25e000000000000000000000000000000000000000000000000000000000000000000000000000000000000000000000000000000000000000000000000000001400000000000000000000000000000000000000000000000000000000000000000",
        "nonce": "0x168",
        "chainId": "0x515"
      },
      "additionalContracts": [],
      "isFixedGasLimit": false
    },
    {
      "hash": null,
      "transactionType": "CALL",
      "contractName": null,
      "contractAddress": "0xcec6820c80ef37636bae28abc4874aa4153fdd78",
      "function": "modifyLiquidity((address,address,uint24,int24,address),(int24,int24,int256,bytes32),bytes)",
      "arguments": [
        "(0x77a4D2324d8330a04a0187A36D35fA4B542d17eb, 0xEB8f887B4B5ec60B7038C9e5d231115791fDE53f, 10000, 100, 0x9AF8a8F46fA1BD20d13a38a415Bd34B16c2e0A80)",
        "(-9200, -100, 122864222, 0x0000000000000000000000000000000000000000000000000000000000000000)",
        "0x"
      ],
      "transaction": {
        "from": "0x39dc391f8ffe71156212c7c3196ef09b9c0bddf8",
        "to": "0xcec6820c80ef37636bae28abc4874aa4153fdd78",
        "gas": "0x5e6a4",
        "value": "0x0",
        "input": "0x5a6bcfda00000000000000000000000077a4d2324d8330a04a0187a36d35fa4b542d17eb000000000000000000000000eb8f887b4b5ec60b7038c9e5d231115791fde53f000000000000000000000000000000000000000000000000000000000000271000000000000000000000000000000000000000000000000000000000000000640000000000000000000000009af8a8f46fa1bd20d13a38a415bd34b16c2e0a80ffffffffffffffffffffffffffffffffffffffffffffffffffffffffffffdc10ffffffffffffffffffffffffffffffffffffffffffffffffffffffffffffff9c000000000000000000000000000000000000000000000000000000000752c25e000000000000000000000000000000000000000000000000000000000000000000000000000000000000000000000000000000000000000000000000000001400000000000000000000000000000000000000000000000000000000000000000",
        "nonce": "0x169",
        "chainId": "0x515"
      },
      "additionalContracts": [],
      "isFixedGasLimit": false
    },
    {
      "hash": null,
      "transactionType": "CALL",
      "contractName": "OutcomeToken",
      "contractAddress": "0x39b66b908cae81807a57f02b36e48241186d4dfd",
      "function": "approve(address,uint256)",
      "arguments": [
        "0xCeC6820C80EF37636BAE28aBc4874aa4153FdD78",
        "115792089237316195423570985008687907853269984665640564039457584007913129639935"
      ],
      "transaction": {
        "from": "0x39dc391f8ffe71156212c7c3196ef09b9c0bddf8",
        "to": "0x39b66b908cae81807a57f02b36e48241186d4dfd",
        "gas": "0xfbfa",
        "value": "0x0",
        "input": "0x095ea7b3000000000000000000000000cec6820c80ef37636bae28abc4874aa4153fdd78ffffffffffffffffffffffffffffffffffffffffffffffffffffffffffffffff",
        "nonce": "0x16a",
        "chainId": "0x515"
      },
      "additionalContracts": [],
      "isFixedGasLimit": false
    },
    {
      "hash": null,
      "transactionType": "CALL",
      "contractName": "OutcomeToken",
      "contractAddress": "0x90c7dea43c8b9f66644503af0d7b80b3f707fe1a",
      "function": "approve(address,uint256)",
      "arguments": [
        "0xCeC6820C80EF37636BAE28aBc4874aa4153FdD78",
        "115792089237316195423570985008687907853269984665640564039457584007913129639935"
      ],
      "transaction": {
        "from": "0x39dc391f8ffe71156212c7c3196ef09b9c0bddf8",
        "to": "0x90c7dea43c8b9f66644503af0d7b80b3f707fe1a",
        "gas": "0xfbfa",
        "value": "0x0",
        "input": "0x095ea7b3000000000000000000000000cec6820c80ef37636bae28abc4874aa4153fdd78ffffffffffffffffffffffffffffffffffffffffffffffffffffffffffffffff",
        "nonce": "0x16b",
        "chainId": "0x515"
      },
      "additionalContracts": [],
      "isFixedGasLimit": false
    },
    {
      "hash": null,
      "transactionType": "CALL",
      "contractName": "ERC20Mock",
      "contractAddress": "0x77a4d2324d8330a04a0187a36d35fa4b542d17eb",
      "function": "approve(address,uint256)",
      "arguments": [
        "0xCeC6820C80EF37636BAE28aBc4874aa4153FdD78",
        "115792089237316195423570985008687907853269984665640564039457584007913129639935"
      ],
      "transaction": {
        "from": "0x39dc391f8ffe71156212c7c3196ef09b9c0bddf8",
        "to": "0x77a4d2324d8330a04a0187a36d35fa4b542d17eb",
        "gas": "0x98fb",
        "value": "0x0",
        "input": "0x095ea7b3000000000000000000000000cec6820c80ef37636bae28abc4874aa4153fdd78ffffffffffffffffffffffffffffffffffffffffffffffffffffffffffffffff",
        "nonce": "0x16c",
        "chainId": "0x515"
      },
      "additionalContracts": [],
      "isFixedGasLimit": false
    },
    {
      "hash": null,
      "transactionType": "CALL",
      "contractName": null,
      "contractAddress": "0xcec6820c80ef37636bae28abc4874aa4153fdd78",
      "function": "modifyLiquidity((address,address,uint24,int24,address),(int24,int24,int256,bytes32),bytes)",
      "arguments": [
        "(0x39b66B908Cae81807A57f02B36E48241186D4DFd, 0x77a4D2324d8330a04a0187A36D35fA4B542d17eb, 10000, 100, 0x9AF8a8F46fA1BD20d13a38a415Bd34B16c2e0A80)",
        "(-9200, -100, 122864222, 0x0000000000000000000000000000000000000000000000000000000000000000)",
        "0x"
      ],
      "transaction": {
        "from": "0x39dc391f8ffe71156212c7c3196ef09b9c0bddf8",
        "to": "0xcec6820c80ef37636bae28abc4874aa4153fdd78",
        "gas": "0x5cead",
        "value": "0x0",
        "input": "0x5a6bcfda00000000000000000000000039b66b908cae81807a57f02b36e48241186d4dfd00000000000000000000000077a4d2324d8330a04a0187a36d35fa4b542d17eb000000000000000000000000000000000000000000000000000000000000271000000000000000000000000000000000000000000000000000000000000000640000000000000000000000009af8a8f46fa1bd20d13a38a415bd34b16c2e0a80ffffffffffffffffffffffffffffffffffffffffffffffffffffffffffffdc10ffffffffffffffffffffffffffffffffffffffffffffffffffffffffffffff9c000000000000000000000000000000000000000000000000000000000752c25e000000000000000000000000000000000000000000000000000000000000000000000000000000000000000000000000000000000000000000000000000001400000000000000000000000000000000000000000000000000000000000000000",
        "nonce": "0x16d",
        "chainId": "0x515"
      },
      "additionalContracts": [],
      "isFixedGasLimit": false
    },
    {
      "hash": null,
      "transactionType": "CALL",
      "contractName": null,
      "contractAddress": "0xcec6820c80ef37636bae28abc4874aa4153fdd78",
      "function": "modifyLiquidity((address,address,uint24,int24,address),(int24,int24,int256,bytes32),bytes)",
      "arguments": [
        "(0x77a4D2324d8330a04a0187A36D35fA4B542d17eb, 0x90c7DEa43c8B9f66644503AF0D7B80b3f707fe1A, 10000, 100, 0x9AF8a8F46fA1BD20d13a38a415Bd34B16c2e0A80)",
        "(-9200, -100, 122864222, 0x0000000000000000000000000000000000000000000000000000000000000000)",
        "0x"
      ],
      "transaction": {
        "from": "0x39dc391f8ffe71156212c7c3196ef09b9c0bddf8",
        "to": "0xcec6820c80ef37636bae28abc4874aa4153fdd78",
        "gas": "0x5cf68",
        "value": "0x0",
        "input": "0x5a6bcfda00000000000000000000000077a4d2324d8330a04a0187a36d35fa4b542d17eb00000000000000000000000090c7dea43c8b9f66644503af0d7b80b3f707fe1a000000000000000000000000000000000000000000000000000000000000271000000000000000000000000000000000000000000000000000000000000000640000000000000000000000009af8a8f46fa1bd20d13a38a415bd34b16c2e0a80ffffffffffffffffffffffffffffffffffffffffffffffffffffffffffffdc10ffffffffffffffffffffffffffffffffffffffffffffffffffffffffffffff9c000000000000000000000000000000000000000000000000000000000752c25e000000000000000000000000000000000000000000000000000000000000000000000000000000000000000000000000000000000000000000000000000001400000000000000000000000000000000000000000000000000000000000000000",
        "nonce": "0x16e",
        "chainId": "0x515"
      },
      "additionalContracts": [],
      "isFixedGasLimit": false
    }
  ],
  "receipts": [],
  "libraries": [],
  "pending": [
    "0x2929ebb03ab13b8fd47be672dba0a4fa44fb3e323f644f66ae707fbfc047fd4a",
    "0x5fb7453f00d4e3777569032adfb4438439881769bc629d0957fa6c512516ea81",
    "0x885cbd00745f007005c1f45812fcc0948a6a27c6d68b9969e5440020061a8d8e",
    "0x1a327bea74e99cb1e135477afd52e12cb48942c43b14a1c6734708cc172d02e2",
    "0x28e4ed5b65cd37ca6650013bc446c9753cdb36a3cdd02142f75584980498ca28",
    "0x223e25c6c5092169b9a606bf2c776f3e6d2726278b3128c37bb56b35672fe6c0",
    "0x83ffea54f07c46cc472f1631715f923a9ee5ec2aa6620fc14e421951ca414cb9",
    "0x48741e0f6a43c23faf173068316d5194f899372f15ad1c546589ec4b7c9c7f0f"
  ],
  "returns": {},
  "timestamp": 1743270291,
  "chain": 1301,
  "commit": "a7094a8"
}